:020000040800F2
:1080000090200020BD810008138200080B82000828
:108010000F82000805820008E182000800000000CD
:108020000000000000000000000000003F82000887
:1080300009820008000000003D820008418200081B
:10804000D7810008D7810008D7810008D7810008B0
:10805000D7810008D7810008D7810008D7810008A0
:10806000D7810008D7810008D7810008D781000890
:10807000D7810008D7810008D7810008D781000880
:10808000D7810008D7810008D7810008D781000870
:10809000D7810008D7810008D7810008D781000860
:1080A000D7810008D7810008D7810008D781000850
:1080B000D7810008D7810008D7810008D781000840
:1080C000D7810008D7810008D7810008D781000830
:1080D000D7810008D7810008D7810008D781000820
:1080E000D7810008D7810008D7810008D781000810
:1080F000D7810008D7810008D7810008D781000800
:10810000D7810008D7810008D7810008D7810008EF
:10811000D7810008D7810008D7810008D7810008DF
:10812000D7810008D7810008D7810008D7810008CF
:10813000D7810008D7810008D7810008D7810008BF
:10814000D7810008D7810008D7810008D7810008AF
:1081500000000000D7810008D7810008D7810008FF
:10816000D7810008D781000800000000000000004F
:108170000000000000000000D7810008D78100083F
:10818000D781000800000000D7810008D7810008CF
:1081900000000000000000000000000000000000DF
:1081A000D7810008D7810008DFF80CD000F018F85C
:1081B000004800479187000890200020064880472B
:1081C00006480047FEE7FEE7FEE7FEE7FEE7FEE7BC
:1081D000FEE7FEE7FEE7FEE749820008A981000806
:1081E000064C074D06E0E06840F0010394E8070004
:1081F00098471034AC42F6D3FFF7DAFFC00B0508FE
:10820000E00B050800BFFEE7704700BFFEE700BFB8
:10821000FEE7704710B5002807DA0A07140E054A72
:1082200000F00F031B1FD45403E00A07130E024A89
:10823000135410BD18ED00E000E400E070477047F3
:1082400010B500F069F810BD10B51E48006840F088
:1082500001001C490860084640681B49084019494C
:1082600048600846006819490840164908600846F1
:10827000006820F4802008600846406814490840DF
:10828000104948600846006820F0A05008600020AF
:10829000C8624FF47F00886000200E4908600948DA
:1082A000D0F8900020F080500B4908604FF4800017
:1082B00001F104010860094801F10401086000F0BF
:1082C0002FFC10BD001002400C00FFE0FFFFF6FE87
:1082D000FFFF00DF801002409010024010300020AD
:1082E00000BFFEE702E008C8121F08C1002AFAD149
:1082F00070477047002001E001C1121F002AFBD126
:10830000704700000349086000BF0249096800295E
:10831000FBD17047080000200448006820B10348E2
:108320000068401E014908607047000008000020F6
:1083300001617047F0B5044616460025002201F0A1
:108340000F0511F0100F00D03543002018E0012771
:1083500087401F4212D022684FEA800C0F2707FA8D
:108360000CF7BA43870005FA07F73A43282901D1E9
:10837000636102E0482900D123612260471CB8B242
:108380000828E4D308201CE0012787401F4216D0AC
:108390006268A0F108074FEA870C0F2707FA0CF76D
:1083A000BA43A0F10807BF0005FA07F73A432829A6
:1083B00001D1636102E0482900D123616260471C5A
:1083C000B8B21028E0D3F0BD10B503460020DAB1F2
:1083D000022B04D11A4CE06B0843E0632FE0032B1F
:1083E00004D1174C206C0843206428E0042B04D1EE
:1083F000134C606C0843606421E0052B1FD1104CC6
:10840000A06C0843A0641AE0022B04D10C4CE06B72
:108410008843E06313E0032B04D1094C206C8843AC
:1084200020640CE0042B04D1054C606C884360642C
:1084300005E0052B03D1024CA06C8843A06410BD5D
:108440000000014010B541F61A1000F093FA4FF009
:10845000004000F09FFA0322C021192000F0AAFA80
:1084600008B900BFFEE74FF4003000F0DBFA42F23B
:108470001C4000F0C3F942F21C4000F0CFF908B9EB
:1084800000BFFEE700203D49C86208634863886377
:1084900028204860092008602A20C8600B208860D6
:1084A000374800682A304861364800680B30086158
:1084B000334800682C30C861324800680D3088614C
:1084C000FF20086248628862084600F05FFB3F2098
:1084D0002D494860CA2008602A20C860652088604D
:1084E00002200861FF20486148620862C8610020DC
:1084F00088614FF4C06088620720C8622048006825
:10850000032101EB4000204988631D4800684000BA
:1085100048633C20C8631D4800F09DFB3F201A497A
:1085200048604FF4FB7008603420C860E920886020
:1085300002200861FF20486148620862C8618861C2
:108540004FF4C06088620720C862114808630C4875
:108550000068032101EB40000B498863084800686C
:108560004000486307480068C8630848803800F046
:1085700072FB012000F0C2FB10BD000010000020C3
:1085800000000020040000204C0000208068014012
:10859000208D000810B540F2066000F0EBF940F2C3
:1085A000076000F0E7F94FF4C16000F0E3F941F62D
:1085B0001E1000F0DFF941F61F1000F0DBF94FF458
:1085C000C06000F0D7F901221E490320FFF7FCFE2E
:1085D00001221D490420FFF7F7FE70230322182112
:1085E0001A48FFF7A7FE4FF6107303221821184808
:1085F000FFF7A0FE40F2FF63032218211548FFF7A2
:1086000099FE4FF4E653032218211348FFF792FE18
:108610004FF48063032218211048FFF78BFE4FF4BC
:108620008063032218210E48FFF784FE40230322B3
:1086300010210748FFF77EFE40210548FFF778FE2E
:1086400010BD000000401CDCE2FF7F00001801406C
:10865000007401400078014000200140001C0140EE
:108660000010014010B5404840490863FFF7EAFE9A
:108670003F4800F0E9FA012000F040FB00F07CFAEE
:108680006F20FFF73FFE3B4838490863FFF7DAFEEB
:10869000374800F0D9FA012000F030FB00F06CFA06
:1086A0006F20FFF72FFE344830490863FFF7CAFEFA
:1086B0002F4800F0C9FA012000F020FB00F05CFA1E
:1086C0006F20FFF71FFE2D4828490863FFF7BAFE09
:1086D000274800F0B9FA012000F010FB00F04CFA36
:1086E0006F20FFF70FFE264820490863FFF7AAFE18
:1086F0001F4800F0A9FA012000F000FB00F03CFA4E
:108700006F20FFF7FFFD1F4818490863FFF79AFE27
:10871000174800F099FA012000F0F0FA00F02CFA66
:108720006F20FFF7EFFD184810490863FFF78AFE36
:108730000F4800F089FA012000F0E0FA00F01CFA7E
:108740006F20FFF7DFFD114808490863FFF77AFE45
:10875000074800F079FA012000F0D0FA00F00CFA96
:108760006F20FFF7CFFD10BDC0FE02084C000020B7
:10877000806801406040030800820308A0C303082A
:1087800040050408E04604088088040820CA04085C
:108790004FF40041080300F015F800F0C5F9FFF7A9
:1087A000F9FEFFF74FFE064800F04EFA012000F0F8
:1087B000A5FA00F0E1F901E0FFF754FFFCE7000043
:1087C00000680140024A0A400243024B1A607047A7
:1087D00080FFFF1F08ED00E00146074800EB911005
:1087E000006801F01F0301229A40104201D00120CD
:1087F00070470020FCE7000000100240064901EB32
:108800009011096800F01F0301229A401143024AA7
:1088100002EB90121160704700100240F0B506465E
:108820000024002700251C2E7CD007DCAEB3102EC0
:108830000FD0182E54D01A2E73D161E0B6F5006F08
:1088400018D0B6F5106F39D0A6F510501C38F3D1FA
:1088500078E004E01120FFF7BFFF0546641C1DB956
:10886000A4F57F40FF38F5D11120FFF7B5FF00B127
:1088700001277AE005E040F60100FFF7ADFF05466D
:10888000641C1DB96FF07C408442F4D140F60100B5
:10889000FFF7A2FF00B1012767E0FFE704E0012036
:1088A000FFF79AFF0546641C15B9B4F5A06FF6D121
:1088B0000120FFF791FF00B1012756E005E040F6E7
:1088C0000110FFF789FF0546641C15B9284884424A
:1088D000F5D140F60110FFF77FFF00B1012744E01A
:1088E00004E01920FFF778FF0546641C15B92048FD
:1088F0008442F6D11920FFF76FFF00B1012734E061
:1089000004E01B20FFF768FF0546641C15B91848F2
:108910008442F6D11B20FFF75FFF00B1012724E05E
:1089200000E021E004E01D20FFF756FF0546641C2F
:1089300015B90F488442F6D11D20FFF74DFF00B155
:10894000012712E005E042F21D40FFF745FF054612
:10895000641C15B906488442F5D142F21D40FFF768
:108960003BFF00B1012700E000BF00BF3846F0BD6B
:10897000FFFF0F00064901EB9011096800F01F038B
:1089800001229A401143024A02EB90121160704793
:10899000001002400021054A116821F0004141EA1F
:1089A0000002034BC3F89820704700009810024063
:1089B0000010024030B503460024022B01D33F2BA8
:1089C00001D9002030BD312902D3B1F5D87F01D9BA
:1089D0000020F7E7022A01D3072A01D90020F1E796
:1089E0000D4804680D4804EA000403F03F0047F610
:1089F000C07505EA811540EA05004FF0E04505EA3B
:108A0000027540EA050040EA04040548C0F89840B1
:108A10004FF00100D6E70000981002400080FF8F61
:108A2000001002400021054A116821F4403141EA5A
:108A30000002034BC3F898207047000098100240D2
:108A40000010024000200021314A126842F48032B6
:108A50002F4B1A6000BF401C2D4A126802F40031EF
:108A600019B9A0F57F42FF3AF5D1294A126812F4EC
:108A7000003F01D100BFFEE7254A5268244B5A60EF
:108A80001A4652685A601A46526842F480625A6026
:108A90001A4652681F4B1A401D4B5A601A465268BC
:108AA00042F404125A601A46D26A1B4B1A40184B01
:108AB000DA621A46D26A194B1A43154BDA621A4621
:108AC000126842F080621A6000BF114A126812F008
:108AD000006FFAD00E4A126842F080720C4B1A6096
:108AE00000BF0B4A126812F0007FFAD0084A5268A1
:108AF00022F00302064B5A601A46526842F0020204
:108B00005A6000BF024A526812F0080FFAD070474C
:108B100000100240FFFFC0DF00F0FEFF440A01002A
:108B200010B5FFF78FFF10BD10B5124800684FF465
:108B30007A71B0FBF1F4601EB0F1807F01D30120A7
:108B40000FE0601E4FF0E02148610F214FF0FF3031
:108B5000FFF760FB00204FF0E021886107200861EB
:108B6000002008B100BFFEE70021481EFFF752FBBE
:108B700010BD00000C0000200348006840F0010018
:108B80000149086070470000186801402D490968D4
:108B900001F0F0212B4A11608288016841EA02410C
:108BA000284A1160111D096801F0F021121D1160A1
:108BB0008289816841EA0241224A121D1160111D19
:108BC000096801F0F021121D1160828A016941EAF1
:108BD00002411C4A08321160111D096801F0F021A0
:108BE000121D1160828B816941EA0241154A0C32E3
:108BF000116014492431096801F07F41114A24327F
:108C00001160D0E9092141EA0221028C41EA0241C6
:108C10000C4A243211600B491031096821F070416F
:108C2000084A10321160D0E90B121143426B114314
:108C3000826B1143034A103212681143014A103209
:108C40001160704708680140D0F8841041F00101BC
:108C5000C0F88410704750F8882F02F0F0220260AC
:108C60000B884A6842EA03420260426802F0F0223E
:108C700042600B89CA6842EA03424260C26822F03D
:108C80000702C2600A69C260026922F0FF02026143
:108C90004A690261426900224261D1E9083242EA2E
:108CA00003228B8B42EA03420B7E42EA036242615B
:108CB000826940F207739A438261D1E90A321A430A
:108CC0008261426A002242620A6B4262826A02F058
:108CD000C02282628B8E8A6B42EA03428262426ABF
:108CE000002242620A6B4262C26A6FF30A02C262E7
:108CF000CA6BC262A0F188007047000030B9074912
:108D0000096841F00201054A116005E0034909685C
:108D100041F00101014A11607047000024680140E0
:108D2000FFFFFFFFFFFFFFFFFFFFFFFFFFFFFFFF53
:108D3000FFFFFFFFFFFFFFFFFFFFFFFFFFFFFFFF43
:108D4000FFFFFFFFFFFFFFFFFFFFFFFFFFFFFFFF33
:108D5000FFFFFFFFFFFFFFFFFFFFFFFFFFFFFFFF23
:108D6000FFFFFFFFFFFFFFFFFFFFFFFFFFFFFFFF13
:108D7000FFFFFFFFFFFFFFFFFFFFFFFFFFFFFFFF03
:108D8000FFFFFFFFFFFFFFFFFFFFFFFFFFFFFFFFF3
:108D9000FFFFFFFFFFFFFFFFFFFFFFFFFFFFFFFFE3
:108DA000FFFFFFFFFFFFFFFFFFFFFFFFFFFFFFFFD3
:108DB000FFFFFFFFFFFFFFFFFFFFFFFFFFFFFFFFC3
:108DC000FFFFFFFFFFFFFFFFFFFFFFFFFFFFFFFFB3
:108DD000FFFFFFFFFFFFFFFFFFFFFFFFFFFFFFFFA3
:108DE000FFFFFFFFFFFFFFFFFFFFFFFFFFFFFFFF93
:108DF000FFFFFFFFFFFFFFFFFFFFFFFFFFFFFFFF83
:108E0000FFFFFFFFFFFFFFFFFFFFFFFFFFFFFFFF72
:108E1000FFFFFFFFFFFFFFFFFFFFFFFFFFFFFFFF62
:108E2000FFFFFFFFFFFFFFFFFFFFFFFFFFFFFFFF52
:108E3000FFFFFFFFFFFFFFFFFFFFFFFFFFFFFFFF42
:108E4000FFFFFFFFFFFFFFFFFFFFFFFFFFFFFFFF32
:108E5000FFFFFFFFFFFFFFFFFFFFFFFFFFFFFFFF22
:108E6000FFFFFFFFFFFFFFFFFFFFFFFFFFFFFFFF12
:108E7000FFFFFFFFFFFFFFFFFFFFFFFFFFFFFFFF02
:108E8000FFFFFFFFFFFFFFFFFFFFFFFFFFFFFFFFF2
:108E9000FFFFFFFFFFFFFFFFFFFFFFFFFFFFFFFFE2
:108EA000FFFFFFFFFFFFFFFFFFFFFFFFFFFFFFFFD2
:108EB000FFFFFFFFFFFFFFFFFFFFFFFFFFFFFFFFC2
:108EC000FFFFFFFFDFFFBFF7BEF79EF79EF79EF79E
:108ED0009EF7BEF7BFF7DFF7DFFFDFFFBFF7BEF795
:108EE0009EEF5DEF3CE73CE73CE7BEF7FFFFFFFF8F
:108EF000FFFFFFFFFFFFFFFFFFFFFFFFFFFFFFFF82
:108F0000FFFFFFFFFFFFFFFFFFFFFFFFFFFFFFFF71
:108F1000FFFFFFFFFFFFFFFFFFFFFFFFFFFFFFFF61
:108F2000FFFFFFFFFFFFFFFFFFFFFFFFFFFFFFFF51
:10921000FFFFDFFFDFFFFFFFFFFFFFFFFFFFFFFF9E
:10922000FFFFFFFFFFFFFFFFDFFFFFFFFFFFDFF796
:10923000BFEF9EEF1DDF9BCE5AC619BEF8B5F8B53D
:10924000F8B55AC67BCEBCD6FDD6FDD6BCCE7AC606
:109250003ABE19BE3ABE5AC6BBCE7EEFBFFFBEF7BE
:10926000BFF7BFF7BFFFDFFFDFFFFFFFFFFFFFFF1E
:10927000FFFFFFFFFFFFFFFFFFFFFFFFFFFFFFFFFE
:10928000FFFFFFFFFFFFFFFFFFFFFFFFFFFFFFFFEE
:10929000FFFFFFFFFFFFFFFFFFFFFFFFFFFFFFFFDE
:1092A000FFFFFFFFFFFFFFFFFFFFFFFFFFFFFFFFCE
:10959000FFFFFFFFFFFFFFFFDFFFFFF7DFEF5DE7ED
:1095A000BBCE7AC619BED8B5D8B5F8B5F8B5F8B5FA
:1095B000D8B5D8B5F8B519BE5AC67BC65AC639BE95
:1095C00019BE19BE3ABE5AC6BCCE5EEF9EF79EF7D4
:1095D0009EF79EF7BEF7BEF7DEFFFEFFFFFFFFFF21
:1095E000FFFFFFFFFFFFFFFFFFFFFFFFFFFFFFFF8B
:1095F000FFFFFFFFFFFFFFFFFFFFFFFFFFFFFFFF7B
:10960000FFFFFFFFFFFFFFFFFFFFFFFFFFFFFFFF6A
:10961000FFFFFFFFFFFFFFFFFFFFFFFFFFFFFFFF5A
:10990000FFFFFFFFFFFFFFFFDFFF9EEF3DDFBBCE4F
:1099100019BED8AD97AD97ADB8ADF8B519B619B6B3
:10992000F8B5D8B5D8B5F8B519BE39BE39BE39BE07
:1099300039BE3ABE5AC65AC69BCE1DE75DEF5DEFF3
:109940005DEF7DEF9EF7BEF7DEF7DEFFFFFFFFFF67
:10995000FFFFFFFFFFFFFFFFFFFFFFFFFFFFFFFF17
:10996000FFFFFFFFFFFFFFFFFFFFFFFFFFFFFFFF07
:10997000FFFFFFFFFFFFFFFFFFFFFFFFFFFFFFFFF7
:10998000FFFFFFFFFFFFFFFFFFFFFFFFFFFFFFFFE7
:109C6000FFFFFFFFFFFFFFFFFFFFFFFFFFFFDFFF24
:109C7000DFFFBFF7BEF7BEF77EEF9BCE19BED8B5AC
:109C800097AD76A576A597ADB7ADD8B5F9B5F9B5C9
:109C9000D8B5D8B5D8B5D8B5F9B5F9B519BE19BE86
:109CA00039BE3ABE5AC65AC65AC67ACE9AD6BBD61C
:109CB000DBDEFCDE3DE79EF7BEF7DEFFFFFFFFFFCA
:109CC000FFFFFFFFFFFFFFFFFFFFFFFFFFFFFFFFA4
:109CD000FFFFFFFFFFFFFFFFFFFFFFFFFFFFFFFF94
:109CE000FFFFFFFFFFFFFFFFFFFFFFFFFFFFFFFF84
:109CF000FFFFFFFFFFFFFFFFFFFFFFFFFFFFFFFF74
:109FD000FFFFDFFFDFFFFFFFFFFFDFFF7EEFFCDEA6
:109FE000BBD67AC639C639BEF8BD97AD77A597A559
:109FF000B8ADB8ADB8ADD8ADD8ADD8ADD8B5D8B589
:10A00000F9B519BE39BE19BE19B619B619BE39BE91
:10A010003ABE3ABE3ABE3ABE19BED8B5B7B5F8BDDB
:10A0200039C679CEDBDE5DE77EEFBEF7DFFFFFFFEF
:10A03000DFFFFFFFFFFFFFFFFFFFFFFFFFFFFFFF50
:10A04000FFFFFFFFFFFFFFFFFFFFFFFFFFFFFFFF20
:10A05000FFFFFFFFFFFFFFFFFFFFFFFFFFFFFFFF10
:10A06000FFFFFFFFFFFFFFFFFFFFFFFFFFFFFFFF00
:10A07000FFFFFFFFFFFFFFFFFFFFFFFFFFFFFFFFF0
:10A34000FFFFFFFFFFFFFFFFDFF77EEF9BCED8B5DC
:10A3500077AD56A556A556A576A597A598ADB8ADE7
:10A36000B8ADD8ADD8ADB8ADB8ADD8ADD9B5F9B5F3
:10A3700019B619B6F9B519B619BE19BE39BE3ABE25
:10A380003ABE3ABE5ABE5AC65ABED8B5B7B5D8B507
:10A39000F8BD39C69ACEFBDE3CE79EEFDFF7FFFF44
:10A3A000FFFFFFFFFFFFFFFFFFFFFFFFFFFFFFFFBD
:10A3B000FFFFFFFFFFFFFFFFFFFFFFFFFFFFFFFFAD
:10A3C000FFFFFFFFFFFFFFFFFFFFFFFFFFFFFFFF9D
:10A3D000FFFFFFFFFFFFFFFFFFFFFFFFFFFFFFFF8D
:10A6B000FFFFFFFFFFFF9EEFDBD639BE97AD569D34
:10A6C000369D77A597ADB8ADB8AD98AD98ADB8AD9E
:10A6D000B8B5D9B5D9B5B8B5B8ADD9B5D9B5F9B555
:10A6E000F9BDF9B5F8B5F9B519BE19BE39BE19BE2F
:10A6F00039BE3ABE3ABE5AC65AC65AC65AC659C6D4
:10A7000059C659C65AC69ACEDBD63CE7BEEFDFF72C
:10A71000FFFFDFFFDFFFDFFFFFFFFFFFFFFFFFFFA9
:10A72000FFFFFFFFFFFFFFFFFFFFFFFFFFFFFFFF39
:10A73000FFFFFFFFFFFFFFFFFFFFFFFFFFFFFFFF29
:10A74000FFFFFFFFFFFFFFFFFFFFFFFFFFFFFFFF19
:10A75000FFFFFFFFFFFFFFFFFFFFFFFFFFFFFFFF09
:10AA2000FFFFBFF75DE77AC697AD359D159D369D53
:10AA3000569D77A577A577A577A577A578A598AD35
:10AA4000B9B5D9B5D9B5D9B5D9B5D9B5D9B5D9B5B6
:10AA5000F9B519BE19BE19BE19BE19BE19BE3ABE46
:10AA60003ABE5AC65AC65AC65AC67BCE9BCE9BCE53
:10AA70007ACE7ACE7ACE7ACE9ACEDBD65DE77DEFED
:10AA8000BEF7DFF7DFFFDFFFDFFFFFFFFFFFFFFFA7
:10AA9000FFFFFFFFFFFFFFFFFFFFFFFFFFFFFFFFC6
:10AAA000FFFFFFFFFFFFFFFFFFFFFFFFFFFFFFFFB6
:10AAB000FFFFFFFFFFFFFFFFFFFFFFFFFFFFFFFFA6
:10AAC000FFFFFFFFFFFFFFFFFFFFFFFFFFFFFFFF96
:10AD8000FFFFFFFFFFFFFFFFFFFFFFFFFFFFDFF7FB
:10AD90005DEF7AC6D8B576A5159D159D56A598A5E3
:10ADA000B8AD97A577A598A5B8A5B8ADB8ADB8AD1D
:10ADB000B8ADB8ADB8ADB9B5B9B5D9B5D9B5F9B5BE
:10ADC000F9B519BE3ABE19BE19BE19BE39BE5AC66A
:10ADD0007AC67BC67BC67AC65AC65AC65AC67ACEC9
:10ADE0009BCE9BCE9ACE9ACE9ACEBBD6FCDE1CDFF3
:10ADF0005DE79EF7BEF7BEF7DFFFDFFFFFFFFFFF58
:10AE0000FFFFFFFFFFFFFFFFFFFFFFFFFFFFFFFF52
:10AE1000FFFFFFFFFFFFFFFFFFFFFFFFFFFFFFFF42
:10AE2000FFFFFFFFFFFFFFFFFFFFFFFFFFFFFFFF32
:10AE3000FFFFFFFFFFFFFFFFFFFFFFFFFFFFFFFF22
:10B0F000DFFFDFFFFFFFFFFFDFF79EEF1DDF9CCECF
:10B10000B8AD579D579D579D579D579D77A577A5DE
:10B1100098A598A598A598A598A5B8ADB8ADB8ADCF
:10B12000B8ADB8ADB8ADD8B5D8B5D9B5F9B5F9B5EC
:10B13000F9B519BE19BE19BE19BE39BE3ABE3AC616
:10B140005AC65AC65AC65AC65AC67AC67ACE9ACE6F
:10B150009BCE9BCEBBCEBBCEBBCEBBD6DBD6DBD68F
:10B16000DCD6FCDE1CE73DEF7EF7BEF7DFFFFFFF1E
:10B17000FFFFFFFFFFFFFEFFFEFFFFFFFFFFFFFFE1
:10B18000FFFFFFFFFFFFFFFFFFFFFFFFFFFFFFFFCF
:10B19000FFFFFFFFFFFFFFFFFFFFFFFFFFFFFFFFBF
:10B1A000FFFFFFFFFFFFFFFFFFFFFFFFFFFFFFFFAF
:10B1B000FFFFFFFFFFFFFFFFFFFFFFFFFFFFFFFF9F
:10B46000FFFFFFFFDFFF9EEF1DDF3AC6D8AD77A5D8
:10B470001695369D579D579D579D579D77A577A546
:10B4800077A598A598A598A598A5B8ADB8ADB8AD7D
:10B49000B8ADB8ADD8B5D9B5D9B5D9B5F9B5F9B54F
:10B4A000F9B519BE19BE19BE19BE3ABE3ABE3AC6A2
:10B4B0003AC65AC65AC65AC65AC67ACE9ACE9ACEF4
:10B4C0009ACE9BCE9BCEBBCEBBCEDBD6DBD6DBD61D
:10B4D000DBD6BBD6DBDE1CE75DEF7DEF9EF7DEFF44
:10B4E000DEFFFFFFFFFFFFFFFFFFFFFFFFFFFFFF8D
:10B4F000FFFFFFFFFFFFFFFFFFFFFFFFFFFFFFFF5C
:10B50000FFFFFFFFFFFFFFFFFFFFFFFFFFFFFFFF4B
:10B51000FFFFFFFFFFFFFFFFFFFFFFFFFFFFFFFF3B
:10B52000FFFFFFFFFFFFFFFFFFFFFFFFFFFFFFFF2B
:10B7C000FFFFFFFFFFFFFFFFFFFFFFFFFFFFDFFFA9
:10B7D000FFFFFFFFDFFF3DE77BC677A5169D1595B1
:10B7E000F594369D579D579D579D579D77A577A5F5
:10B7F00098A598A598A598A598A5B8ADB8ADB8ADE9
:10B80000B8ADD8B5D8B5D9B5D9B5D9B5F9B5F9B5B3
:10B81000F9B519BE19BE19BE3ABE3ABE3ABE3AC60D
:10B820005AC65AC65AC65AC65AC67ACE9ACE9ACE60
:10B830009ACE9BCEBBCEBBCEBBD6DBD6DBD6DCD680
:10B84000DBD6BBD6BBDEFBDE3CE75DE77DEF9EF7DC
:10B85000BEF7DEFFFFFFFFFFFFFFFFFFFFFFFFFF62
:10B86000FFFFFFFFFFFFFFFFFFFFFFFFFFFFFFFFE8
:10B87000FFFFFFFFFFFFFFFFFFFFFFFFFFFFFFFFD8
:10B88000FFFFFFFFFFFFFFFFFFFFFFFFFFFFFFFFC8
:10B89000FFFFFFFFFFFFFFFFFFFFFFFFFFFFFFFFB8
:10BB3000FFFFFFFFFFFFFFFFFFFFFFFFFFFFDFFF35
:10BB4000FFFFFFFFBFF7BBD6D8B5F594D594F594AA
:10BB50001695579D579D579D579D77A577A598A5F5
:10BB600098A598A598A598A598ADB8ADB8ADB8AD6D
:10BB7000D8ADD8B5D8B5D8B5D9B5F9B5F9B5F9B501
:10BB8000F9B519BE19BE19BE19BE3ABE3AC65AC693
:10BB90005AC65AC65AC65AC67AC69ACE9ACE9BCEAC
:10BBA0009BCE9BCEBBCEBBD6DBD6DBD6DCD6DCD6E3
:10BBB000DCD6BBD6BBD6DBDEFCDE1CE73CE75DEFAC
:10BBC0007DEFBEF7DFFFFFFFFFFFFFFFFFFFFFFF80
:10BBD000FFFFFFFFFFFFFFFFFFFFFFFFFFFFFFFF75
:10BBE000FFFFFFFFFFFFFFFFFFFFFFFFFFFFFFFF65
:10BBF000FFFFFFFFFFFFFFFFFFFFFFFFFFFFFFFF55
:10BC0000FFFFFFFFFFFFFFFFFFFFFFFFFFFFFFFF44
:10BEB000FFFFFFFF9EF77AC6B7AD169D57A577A582
:10BEC000579D579D579D77A577A577A577A598A5E9
:10BED00098A598A598A5B8ADB8ADB8ADB8ADD8AD92
:10BEE000D8ADD8B5D8B5F9B5F9B5F9B519B619B60B
:10BEF00019B619BE19BE3ABE3ABE3ABE3AC65AC6BD
:10BF00005AC65AC67BC67BC67BC69BCE9BCE9BCEF3
:10BF10009BCEBBCEBBCEDBD6DBD6DBD6DCD6DCD62F
:10BF2000FCD6DCDEFCDEFCDEFCDEFCDE1CDF1CE71F
:10BF30003CE75DEF9DEFBEF7DEF7FFFFFFFFFFFF82
:10BF4000FFFFFFFFFFFFFFFFFFFFFFFFFFFFFFFF01
:10BF5000FFFFFFFFFFFFFFFFFFFFFFFFFFFFFFFFF1
:10BF6000FFFFFFFFFFFFFFFFFFFFFFFFFFFFFFFFE1
:10BF7000FFFFFFFFFFFFFFFFFFFFFFFFFFFFFFFFD1
:10C22000FFFFFFFF7EEF5AC6B7AD369D57A557A556
:10C23000369D579D77A577A577A577A598A598A54D
:10C2400098A598A5B8ADB8ADB8ADD8ADD8ADD8ADB6
:10C25000D8B5D8B5F9B5F9B5F9B519B619B619B64D
:10C2600019BE39BE3ABE3ABE3ABE3AC65AC65AC6D8
:10C270005AC67BC67BC67BC67BCE9BCE9BCEBBCE37
:10C28000BBCEBBCEBBD6DBD6DBD6DBD6DCD6FCD674
:10C29000FCD6FCDE1CDF1CDF1CDF1CDF1CDF1CDF10
:10C2A0001CDF3CE73CE75DE77DEFBEF7DFFFDFFF2C
:10C2B000FFFFFFFFFFFFFFFFFFFFFFFFFFFFFFFF8E
:10C2C000FFFFFFFFFFFFFFFFFFFFFFFFFFFFFFFF7E
:10C2D000FFFFFFFFFFFFFFFFFFFFFFFFFFFFFFFF6E
:10C2E000FFFFFFFFFFFFFFFFFFFFFFFFFFFFFFFF5E
:10C59000FFFFFFFFBFF7DBD619BE159DF594169D73
:10C5A000369D77A577A577A577A598A598A598A591
:10C5B00098A598A5B8ADB8ADB8ADB8ADD8B5D8B553
:10C5C000D8B5D8B5D9B5F9B5F9B519BE19BE19BEE2
:10C5D00019BE3ABE3ABE3AC63AC63AC65AC65AC654
:10C5E0007BC67BC67BCE7BCE7BCE9BCEBBCEBBCE73
:10C5F000BBCEBBD6DBD6DCD6DCD6DCD6FCD6FCD6B6
:10C60000FCD6FCDEFCDE1CDF1DDF1DDF3CDF3CDF7B
:10C610003CDF3CDF3CE75DE75DE77DEF9EF79EF7A3
:10C62000BEF7BEF7DFFFDFFFFFFFFFFFFFFFFFFFEC
:10C63000FFFFFFFFFFFFFFFFFFFFFFFFFFFFFFFF0A
:10C64000FFFFFFFFFFFFFFFFFFFFFFFFFFFFFFFFFA
:10C65000FFFFFFFFFFFFFFFFFFFFFFFFFFFFFFFFEA
:10C66000FFFFFFFFFFFFFFFFFFFFFFFFFFFFFFFFDA
:10C90000FFFFFFFFDFFF7EEFDCD6B8AD369D369D23
:10C9100077A577A577A577A577A598A598A598A5D4
:10C9200098A5B8ADB8ADB8ADB8ADD8ADD8B5D8B597
:10C93000D9B5F9B5F9B5F9B519BE19BE19BE19BE03
:10C940001ABE3ABE3AC63AC63AC65AC65AC67BC696
:10C950007BC67BC67BCE7BCE7BCE9BCEBBCEBBCEFF
:10C96000BBCEBBD6BBD6DBD6DCD6FCD6FCD6FCD643
:10C97000FCD6FCDEFDDE1DDF1DDF3DE73DE73DE7CC
:10C980003DE73DE75DE75DE77DE77DEF5DEF5DEF6F
:10C990007DEF7DEF7DEF9EF79EF7BEF7DFFFDFFFB8
:10C9A000DFFFFFFFFFFFFFFFFFFFFFFFFFFFFFFFB7
:10C9B000FFFFFFFFFFFFFFFFFFFFFFFFFFFFFFFF87
:10C9C000FFFFFFFFFFFFFFFFFFFFFFFFFFFFFFFF77
:10C9D000FFFFFFFFFFFFFFFFFFFFFFFFFFFFFFFF67
:10C9E000FFFFFFFFFFFFFFFFFFFFFFFFFFFFFFFF57
:10CC7000DFFFDFFFFFFFDFF75EE73AC677A5369DF0
:10CC800057A577A577A577A597A598A598A5B8A541
:10CC9000B8A5B8A5B8ADB9ADD9ADD8B5D8B5D8B5E2
:10CCA000D9B5F9B5F9B5F9B519B619BE19BE19BE98
:10CCB00019BE3ABE3AC63AC63AC65AC65AC67BC624
:10CCC0007BC67BC69BCE9BCE9BCEBBCEBBCEBBCE0C
:10CCD000BBD6BBD6DBD6DCD6DCD6DCD6FCD6FCD6C7
:10CCE000FCDEFDDE1DDF1DDF3DE73DE73DE73DE707
:10CCF0003DE75DE75DE77DE77DEF7DEF7DEF7DEF74
:10CD00005DEF5DE73CE75DE75DEF5DEF7DEF9EEF9B
:10CD10009EF7DFFFFFFFFFFFFFFFFFFFFFFFFFFFAC
:10CD2000FFFFFFFFFFFFFFFFFFFFFFFFFFFFFFFF13
:10CD3000FFFFFFFFFFFFFFFFFFFFFFFFFFFFFFFF03
:10CD4000FFFFFFFFFFFFFFFFFFFFFFFFFFFFFFFFF3
:10CD5000FFFFFFFFFFFFFFFFFFFFFFFFFFFFFFFFE3
:10CFE000FFFFFFFFFFFFDFFF7EEF5ACE77AD36A5D5
:10CFF00036A577A5979D779D979D98A5B8A5B8A5C7
:10D00000B8A5B8A5D8A5F9AD19B6F9B5F8B5F9B56B
:10D01000F9B5F9B519B619B63ABE3ABE3ABE3ABE36
:10D0200019BE39BE59C659C639BE39BE5AC67BC6A5
:10D030009BCE7BCE9CCEBCCE9BCEBBCEBBD6BBD636
:10D04000BBD6BBD6DBD6DCD6FCD6FCD6FCDEFCDE03
:10D05000FCDE1CDF1CDF3CDF3DE75DE75DE75DE7F5
:10D060005DE77DE77DE77DE77DE77EEF7EEF5DE7CE
:10D070005DE75DE75DE75DE75DE73DE73DE73CE7F1
:10D080003CE77DEFBEF7BEF7DFFFDFFFFFFFFFFFEF
:10D09000FFFFFFFFFFFFFFFFFFFFFFFFFFFFFFFFA0
:10D0A000FFFFFFFFFFFFFFFFFFFFFFFFFFFFFFFF90
:10D0B000FFFFFFFFFFFFFFFFFFFFFFFFFFFFFFFF80
:10D0C000FFFFFFFFFFFFFFFFFFFFFFFFFFFFFFFF70
:10D35000FFFFFFFFFFFFDFFF7EF77AD697B536AD01
:10D3600036A577A5979D979D97A5B8A5D8A5D8A5CB
:10D37000B8A5B8A5D8A5F9AD1AB6F9B5F9B5F9B5F6
:10D38000F9B5F9B519B619B63AB63ABE3ABE3ABECB
:10D390003ABE39BE39BE59C639BE39BE5AC67BC639
:10D3A0007BC67BC6BCCEBCCE9BCEBBCEBBD6BBD6D3
:10D3B000BBD6BBD6DBD6DCD6FCD6FCDEFCDEFCDE88
:10D3C000FCDE1CDF3CDF3CDF3CE75CE75DE77DE744
:10D3D0007DE77DE77DEF7DEF7DE77EE77EE75DE73B
:10D3E0005DE75DE75DE75DE75DE73DE71CDF1CDFCF
:10D3F000FCDE3DE75DEF7DEFBEF7DFFFDFFFFFFF08
:10D40000FFFFFFFFFFFFFFFFFFFFFFFFFFFFFFFF2C
:10D41000FFFFFFFFFFFFFFFFFFFFFFFFFFFFFFFF1C
:10D42000FFFFFFFFFFFFFFFFFFFFFFFFFFFFFFFF0C
:10D43000FFFFFFFFFFFFFFFFFFFFFFFFFFFFFFFFFC
:10D6C000FFFFFFFFFFFFDFFF7EF7BBD6D8BD76B5BC
:10D6D00056AD76A5779D769D779D77A597A597A55D
:10D6E00097A577A5779D77A597A5D8ADD8B5F9B5B6
:10D6F000F9B5F9B5F9B5F9B5F9B519B63ABE3ABE05
:10D700005ABE39BE39BE7AC67AC65AC65AC65AC633
:10D710005AC65AC69BCE9CCE9BCE9BCEBBD6BBD602
:10D72000BBD6BBD6DBD6DCD6DCD6FCDEFCDEFCDE34
:10D73000FCDE1CDF3CDF3CDF3CE73CE75DE77DE7F0
:10D740007DE77DE77DEF7DEF7DEF7EEF7EEF5DE7AF
:10D750005DE75DE75DE75DE75DE73DE71CDF1CDF5B
:10D76000FCDEFBDEFBDE3CE77DEF9EF7DFFFFFFF2D
:10D77000FFFFFFFFFFFFFFFFFFFFFFFFFFFFFFFFB9
:10D78000FFFFFFFFFFFFFFFFFFFFFFFFFFFFFFFFA9
:10D79000FFFFFFFFFFFFFFFFFFFFFFFFFFFFFFFF99
:10D7A000FFFFFFFFFFFFFFFFFFFFFFFFFFFFFFFF89
:10DA3000FFFFFFFFDFFFDFFF9FF7FCE65ACEF8BDD9
:10DA400097B5159DD494938C72845184317CF07376
:10DA5000CF738F6B6E634E638E6BB48C56A577A5B8
:10DA6000D8B5F8B519BE19BE19BE19BE39BE3ABE31
:10DA70005AC659C659C67AC67AC67AC67ACE7BCEF7
:10DA80007AC67AC69BCE9CCEBCCEBBD6BBD6BBD606
:10DA9000BBD6DBD6DCD6FCD6FCDEFCDEFCDEFCDE58
:10DAA0001CDF1CDF3CDF3CE73CE75DE75DE75DE753
:10DAB0007DE77DE77DEF7DEF7DEF7EEF7EEF5DE73C
:10DAC0005DE75DE75DE75DE75DE73DE71CDF1CDFE8
:10DAD000FCDE9AD679CE9AD6FBDE3CE79EF7DFFFD6
:10DAE000FFFFDFFFFFFFFFFFFFFFFFFFFFFFFFFF66
:10DAF000FFFFFFFFFFFFFFFFFFFFFFFFFFFFFFFF36
:10DB0000FFFFFFFFFFFFFFFFFFFFFFFFFFFFFFFF25
:10DB1000FFFFFFFFFFFFFFFFFFFFFFFFFFFFFFFF15
:10DB2000FFFFFFFFFFFFFFFFFFFFFFFFFFFFFFFF05
:10DDA000FFFFFFFFDFFFDFFFBFF75EEFDCDE7ACEB6
:10DDB000F8BD34A5D39C518CAE736D6B0C63CB5AFC
:10DDC000AA528A52694A694A8A4AAB52EC526E6B2D
:10DDD000317CB38C35A5B7ADF8B5F8B518BE18BE13
:10DDE00018BE39C638C6D7B5B7B5F8BD7ACEDCD6B9
:10DDF000DCD6BBD69BCE9BCE9BCEBBD6BBD6DBD6D2
:10DE0000DBD6DBD6DCD6FCDEFCDEFCDEFCDE1CDF9B
:10DE10001CDF3CDF3CE73CE75DE75DE75DE77DE776
:10DE20007DE77DE77DEF7DEF7DEF7DE75DE75DE7FA
:10DE30005DE75DE75DE75DE75DE73DE73DE73DDF2A
:10DE40001CDFBAD679CE79CE79CEBAD61CE79EF74A
:10DE5000BEF7DFFFFFFFFFFFFFFFFFFFFFFFFFFF3B
:10DE6000FFFFFFFFFFFFFFFFFFFFFFFFFFFFFFFFC2
:10DE7000FFFFFFFFFFFFFFFFFFFFFFFFFFFFFFFFB2
:10DE8000FFFFFFFFFFFFFFFFFFFFFFFFFFFFFFFFA2
:10DE9000FFFFFFFFFFFFFFFFFFFFFFFFFFFFFFFF92
:10E11000FFFFFFFFDFFFDFFFDFFF9FF73DEFFCDECD
:10E120005ACED6BD75ADD29C308CCE7B6D732C6B28
:10E130002C6B0B630C632C6B2C6B0C63EC5AEC5A42
:10E14000EC5A0C5B2D634D636E6B8E6B8E6B8E6B1E
:10E150008E6B6E6B2D63CB52CB524D63938CD8B5C7
:10E160005ACE9BD69BCE9BCE9BCEBBD6DBD6DBD6E8
:10E17000DBD6DCD6FCD6FCDEFCDEFCDE1CDF1CDFE6
:10E180001DDF3CE73CE73CE75DE75DE77DE77DE7DA
:10E190007DE77DEF7DEF7DEF7DE77DE75DE75DE787
:10E1A0003DE73DE73DE75DE75DE75DE73DE73DDFF7
:10E1B0001CDF1CE7FBDE9AD659CE59CE9AD61CE757
:10E1C0005DEF9EF7DFFFDFFFFFFFFFFFFFFFFFFFBA
:10E1D000FFFFFFFFFFFFFFFFFFFFFFFFFFFFFFFF4F
:10E1E000FFFFFFFFFFFFFFFFFFFFFFFFFFFFFFFF3F
:10E1F000FFFFFFFFFFFFFFFFFFFFFFFFFFFFFFFF2F
:10E20000FFFFFFFFFFFFFFFFFFFFFFFFFFFFFFFF1E
:10E48000FFFFFFFFFFFFDFFFDFFFBFF79EF75DEF3F
:10E49000DBDE59CEF7BD75B5F39CB294518C308458
:10E4A0000F84EF7BCF7BCF7BEF8310841184F07BD5
:10E4B000AF738E736E6B6E6B6E6B4D6B0C63EC5A41
:10E4C000CB5AEC5ACB52494229428A4A8E6BD49C91
:10E4D000B7B57ACEBBD69BD69BCEBBD6DBD6DBD62A
:10E4E000DCD6FCD6FCDEFCDEFCDEFCDE1CDF1DDF49
:10E4F0001CDF3CE75CE75DE75DE75DE75DE77DE747
:10E500007DE77DE77DE77DE77DE75DE75DE75DE74B
:10E510005DE75DE73DE75DE75DE75DE73DE71CDF64
:10E520001CDF5DE73CE7DBDE79CE59CE59CE9AD6CB
:10E53000DBDE3CE79EF7BEF7DFFFFFFFFFFFFFFFDD
:10E54000FFFFFFFFFFFFFFFFFFFFFFFFFFFFFFFFDB
:10E55000FFFFFFFFFFFFFFFFFFFFFFFFFFFFFFFFCB
:10E56000FFFFFFFFFFFFFFFFFFFFFFFFFFFFFFFFBB
:10E57000FFFFFFFFFFFFFFFFFFFFFFFFFFFFFFFFAB
:10E7E000FFFFFFFFFFFFFFFFFFFFFFFFFFFFFEFF3A
:10E7F000FFFFFFFFFFFFFFFFDFFFDFFFBFF79EF71A
:10E800003DE7DBD69ACE38C6D7B596B575AD55A5DA
:10E8100034A514A5F49CF49C14A514A514A5F39C8C
:10E82000B39C92947294518C318CF083AF7B8E7335
:10E830006E738E6B6D6B2C630C630C636E6B518C03
:10E8400035A55ACEDCDEDCDEBBD6BBD6DBD6DBD6CE
:10E85000DCD6FCD6FCD6FCDEFCDE1CDF1CDF1DDFBC
:10E860001DDF3DE75DE75DE75DE75DE77DE77DEFA8
:10E870007DEF7DEF7DE77DE77DE75DE75DE73DE7E8
:10E880003DE73DE75DE75DE75DE75DE73DE73DE7E8
:10E890001CDF3CE73CE73CE7FBDEBAD638C618C6CF
:10E8A00038C6BAD63CE77DEFBEF7FFFFFFFFFFFF9C
:10E8B000FFFFFFFFFFFFFFFFFFFFFFFFFFFFFFFF68
:10E8C000FFFFFFFFFFFFFFFFFFFFFFFFFFFFFFFF58
:10E8D000FFFFFFFFFFFFFFFFFFFFFFFFFFFFFFFF48
:10E8E000FFFFFFFFFFFFFFFFFFFFFFFFFFFFFFFF38
:10EB5000FFFFFFFFFFFFFFFFFFFFFFFFFFFFDEFFE6
:10EB6000FFFFFFFFFFFFFFFFDFFFDFFFDFFFBEF75E
:10EB70007DEF5DEF5DE7FCDE9AD67ACE59C639C6E9
:10EB800038C618BE18C639C639C618C6F8C5F8C57D
:10EB9000F7C5F7BDB6BD76B555AD14A5D39CB39CEE
:10EBA0009294718C518C518C518C31843184B394FA
:10EBB00055A559C6DBD6DCDEBBD6DBD6DCD6DCD62B
:10EBC000DCD6FCD6FCDE1CDF1CDF1CDF1DDF1DDFFE
:10EBD0003DDF5DE75DE75DE75DE77DE77DE77DEFD5
:10EBE0007DEF7DEF7DE77DE77DE75DE75DE73DE775
:10EBF0003DE73DE75DE75DE75DE75DE73DE73DE775
:10EC00001CDFFBDEFCDE3CE73CE7FBDE79CEF7BD3C
:10EC1000F7BD59CEFBDE3CE79EF7FFFFFFFFFFFF8E
:10EC2000FFFFFFFFFFFFFFFFFFFFFFFFFFFFFFFFF4
:10EC3000FFFFFFFFFFFFFFFFFFFFFFFFFFFFFFFFE4
:10EC4000FFFFFFFFFFFFFFFFFFFFFFFFFFFFFFFFD4
:10EC5000FFFFFFFFFFFFFFFFFFFFFFFFFFFFFFFFC4
:10EEE000DFFF9EF77DEF5DEF1CE71CDFDBDEDBD68F
:10EEF000BAD6BAD6BBD6DBDEDBDEDBDEBAD6BAD616
:10EF0000BAD69AD679CE59CE38C6F7BDB6B596B52B
:10EF100075AD34A513A514A514A514A514A575AD38
:10EF2000D7B559C6BBD6DBD6DBD6DBD6DBD6FCD60F
:10EF3000FCD6FCDEFCDE1CDF1CDF1CDF3DDF3DDF22
:10EF40003DE73DE75DE75DE75DEF5DEF5DEF7DEFA1
:10EF50007DEF5DEF5DEF5DEF5DEF5DE75DE73DE769
:10EF60005DE75DE73DE73DE73DE73DE73DDF3DDF51
:10EF70001CDF3CE73CDF1CDF3CDF1CDFFBDE7ACE26
:10EF800039C6F8BD39C69ACE3DE7DFF7FFFFDFFF90
:10EF9000FFFFFFFFFFFFFFFFFFFFFFFFFFFFFFFF81
:10EFA000FFFFFFFFFFFFFFFFFFFFFFFFFFFFFFFF71
:10EFB000FFFFFFFFFFFFFFFFFFFFFFFFFFFFFFFF61
:10EFC000FFFFFFFFFFFFFFFFFFFFFFFFFFFFFFFF51
:10F25000FFFFBEF79EF77DEF5DEF5DEF3CE71CE73C
:10F260001CE71CE71CE71CE71CE73CE73CE71CE746
:10F270001CE7FBDEDBDEBAD69AD659CE38C618C6F6
:10F28000F7BDB6B596B596B595B575AD96B5D7B586
:10F2900018BE7ACEBBD6DBD6DBD6DBD6DBD6FBD62A
:10F2A000FCDEFCDEFCDE1CDF1CDF1CDF3DDF3DDFA7
:10F2B0003DE73DE75DEF5DEF5DEF5DEF5DEF7DEF1E
:10F2C0007DEF5DEF5DEF5DEF5DEF5DE75DE73DE7F6
:10F2D0005DE75DE73DE73DE73DE73DDF1CDF1CDF28
:10F2E0003DDF3DE73DE71CDF1CDF1CDF1CDFBBD63D
:10F2F0005AC6F8BDF8BD59C6FCDE9EF7DFFFBEFF5B
:10F30000DFFFFFFFFFFFFFFFFFFFFFFFFFFFFFFF2D
:10F31000FFFFFFFFFFFFFFFFFFFFFFFFFFFFFFFFFD
:10F32000FFFFFFFFFFFFFFFFFFFFFFFFFFFFFFFFED
:10F33000FFFFFFFFFFFFFFFFFFFFFFFFFFFFFFFFDD
:10F34000FFFFFFFFFFFFFFFFFFFFFFFFFFFFFFFFCD
:10F5C000FFFFDFFFDFFFBEF79EF79EF77DEF7DEFCA
:10F5D0007DEF7DEF7DEF7DEF7DEF7DEF7DEF7DEFCB
:10F5E0007DEF5DEF3CE71CE7FBDEDBDEBAD69AD6AB
:10F5F00079CE59CE59CE59CE39C638C618C638C676
:10F6000059C69ACEBBD6DBD6BBD6DBD6FCD6FCD64B
:10F61000FCDEFCDEFCDE1CDF1CDF1CDF3DDF3DE72B
:10F620003DE75DE75DEF5DE75DEF5DEF5DEF5DEFB2
:10F630005DEF5DEF5DEF5DEF5DEF5DE73DE75DE7A2
:10F640003DE73DE73DE73DE73DE73DE73DDF1CDFCB
:10F650003DDF3DE71CDFFCDEFCDE1CDF1CDFDBD614
:10F660009ACE39C618BE39C69ACE3CE77DEF9EF7D2
:10F67000DFFFFFFFFFFFFFFFFFFFFFFFFFFFFFFFBA
:10F68000FFFFFFFFFFFFFFFFFFFFFFFFFFFFFFFF8A
:10F69000FFFFFFFFFFFFFFFFFFFFFFFFFFFFFFFF7A
:10F6A000FFFFFFFFFFFFFFFFFFFFFFFFFFFFFFFF6A
:10F6B000FFFFFFFFFFFFFFFFFFFFFFFFFFFFFFFF5A
:10F93000FFFFFFFFFFFFFFFFFFFFFFFFDFFFDFFF17
:10F94000DFFFFFFFFFFFFFFFFFFFFFFFDFFFDFFF27
:10F95000DFFFDFFFBEF7BEF79EF77DEF5DEF5DEFE8
:10F960003CE75CEF5CEF5DEF3CE71CE7DBDEBBD622
:10F97000BBD6BBD6BBD6BBD6BBD6DBD6FCD6FCDE55
:10F98000FCDEFCDE1CDF1CDF1CDF3DDF3DDF3DDF7E
:10F990003DE75DE75DEF5DEF5DEF5DEF5DEF5DEF37
:10F9A0005DEF5DEF5DEF5DEF5DE75DE73DE75DE737
:10F9B0003DE73DE73DE73DDF3DDF1CDF3DDF3DDF70
:10F9C0001CDF3DDF1CDFFCDEFCD6FCDE1CDF1CDFA9
:10F9D000FCDE9ACE59C639BE39C69AD6DBDE3CE784
:10F9E000BEF7DFFFFFFFFFFFFFFFFFFFFFFFFFFF90
:10F9F000FFFFFFFFFFFFFFFFFFFFFFFFFFFFFFFF17
:10FA0000FFFFFFFFFFFFFFFFFFFFFFFFFFFFFFFF06
:10FA1000FFFFFFFFFFFFFFFFFFFFFFFFFFFFFFFFF6
:10FA2000FFFFFFFFFFFFFFFFFFFFFFFFFFFFFFFFE6
:10FCC000FFFFFFFFFFFFFFFFDFFFDFFFBEF7BEF716
:10FCD000BEF7BEF7BEF7BEF7BEF7BEF77DEF1CDF7F
:10FCE000FCDEDBD6BBD6BBD6DBD6FCD6FCDEFCDE30
:10FCF000FCDEFCDE1CDF1CDF3DDF3DE73DE73DE7D2
:10FD00003DE75DE75DEF5DEF5DEF5DEF7DEF5DEFA3
:10FD10005DEF5DEF5DEF5DEF3DE75DE75DE73DE7E3
:10FD20003DE73DE73DE73DE73DE73DDF1CDF1CDF0D
:10FD30001CDF1CDF1CDFFCDEFCDEFCDEFCDE1CDF6F
:10FD40001CDFFCD69ACE7AC639BE18C659CEDBDE89
:10FD50005DEF9EF7DFFFDFFFDFFFDFFFFFFFFFFF4E
:10FD6000FFFFFFFFFFFFFFFFFFFFFFFFFFFFFFFFA3
:10FD7000FFFFFFFFFFFFFFFFFFFFFFFFFFFFFFFF93
:10FD8000FFFFFFFFFFFFFFFFFFFFFFFFFFFFFFFF83
:10FD9000FFFFFFFFFFFFFFFFFFFFFFFFFFFFFFFF73
:020000040801F1
:10004000DFFFDFFFDFFFFFFFFFFFFFFFBEF75DE723
:100050001CDFDBD6BBD6DBD6FCD6FCDEFCDEFCDE52
:10006000FCDE1CDF1CDF3DDF3DE73DE73DE73DE714
:100070005DE75DEF5DEF5DEF7DEF7DEF7DEF5DEFC8
:100080005DEF5DEF5DE73DE75DE73DE73DE73DE7C0
:100090003DE73DE73DDF1CDF1CDF1CDF1CDF1CDF15
:1000A0001CDF1CDF1CDF1CDF1CDFFCDEFCDEFCDEDB
:1000B000FCDEFCDEDBD6DBD69ACE38C638C679CE7F
:1000C000BAD61CE77DEFBEF7DFFFFFFFFFFFFFFFA4
:1000D000FFFFFFFFFFFFFFFFFFFFFFFFFFFFFFFF30
:1000E000FFFFFFFFFFFFFFFFFFFFFFFFFFFFFFFF20
:1000F000FFFFFFFFFFFFFFFFFFFFFFFFFFFFFFFF10
:10010000FFFFFFFFFFFFFFFFFFFFFFFFFFFFFFFFFF
:1003B000FFFFFFFFFFFFFFFFFFFFFFFFDFFF7EEFFE
:1003C0003DE7FCD6BBD6DBD6FCD6FCDEFCDE1CDF74
:1003D0001CDF1CDF1CDF3DE73DE73DE75DE75DE738
:1003E0005DE75DEF5DEF7DEF7DEF7DEF7DEF5DEF35
:1003F0005DEF5DE75DE75DE73DE73DE73DE73DE755
:100400003DE73DE73DE73DDF3DDF1CDF1CDF1CDF57
:100410001CDF1CDF3DDF1CDF1CDFFCDEFCD6FCD656
:10042000FCDEFCDEFCDEFCDEFBD69AD679CE59CEB5
:1004300059CE79CEFBDE7DEFBEF7DFFFFFFFFFFF7A
:10044000FFFFFFFFFFFFFFFFFFFFFFFFFFFFFFFFBC
:10045000FFFFFFFFFFFFFFFFFFFFFFFFFFFFFFFFAC
:10046000FFFFFFFFFFFFFFFFFFFFFFFFFFFFFFFF9C
:10047000FFFFFFFFFFFFFFFFFFFFFFFFFFFFFFFF8C
:10072000FFFFFFFFFFFFFFFFFFFFFFFFDFFF9EEF6A
:100730005DE7FCDEDBD6DBD6FCDEFCDE1CDF1CDF8F
:100740001CDF1CDF3DDF3DE73DE73DE75DE75DE7A3
:100750005DE75DEF7DEF7DEF5DEF5DEF7DEF5DEFE1
:100760005DEF5DEF3DE73DE73DE73DE73DE73DE719
:100770003DE73DDF1CDF1CDF1CDF1CDF1CDF1CDF57
:100780001CDF1CDF1CDF1CDFFCDEFCDEFCDEFCDE15
:10079000FCDEFBD6DBD6DBD6DBD6DBDEDBDE9AD6B9
:1007A00079CE79CE9AD61CE75DEF9EF7DEFFDFFFAC
:1007B000DFFFFFFFFFFFFFFFFFFFFFFFFFFFFFFF69
:1007C000FFFFFFFFFFFFFFFFFFFFFFFFFFFFFFFF39
:1007D000FFFFFFFFFFFFFFFFFFFFFFFFFFFFFFFF29
:1007E000FFFFFFFFFFFFFFFFFFFFFFFFFFFFFFFF19
:1007F000FFFFFFFFFFFFFFFFFFFFFFFFFFFFFFFF09
:100A9000FFFFFFFFFFFFFFFFFFFFFFFFDFFF7EEF17
:100AA0003DE7DBD6BBD6DBD6FCDE1CDF1CDF1CDF64
:100AB0001CDF1CDF3DDF3DE73DE75DE75DE75DE710
:100AC0005DE75DEF5DEF5DEF7DEF7DEF5DEF5DEF8E
:100AD0005DEF5DEF3DE73DE73DE73DE73DE73DE7A6
:100AE0003DE73DE73DDF1CDF1CDF1CDF1CDF1CDFBB
:100AF0001CDF3DE73DDFFCDEDBD6DBD6FCDE1CDFAA
:100B00001CDFFBD6DBD6BBD6BBD6FBDEFBDEDBDEDB
:100B10009AD699D679D6BAD6FBDE5DEFBEF7BEFF80
:100B2000DFFFFFFFFFFFFFFFFFFFFFFFFFFFFFFFF5
:100B3000FFFFFFFFFFFFFFFFFFFFFFFFFFFFFFFFC5
:100B4000FFFFFFFFFFFFFFFFFFFFFFFFFFFFFFFFB5
:100B5000FFFFFFFFFFFFFFFFFFFFFFFFFFFFFFFFA5
:100B6000FFFFFFFFFFFFFFFFFFFFFFFFFFFFFFFF95
:100E0000FFFFFFFFFFFFFFFFFFFFFFFFDFFF9EEF83
:100E10005DE7FBDEBBD6BBD6FCDE1CDF1CDF1CDFC8
:100E20001CDF1CDF3DDF3DE73DE75DE75DE75DE79C
:100E30005DE77DEF7DEF7DEF7DEF7DEF7DEF5DEF9A
:100E40005DEF5DE75DE73DE73DE73DE73DE73DE71A
:100E50003DE73DE73DDF1CDF1CDF1CDF1CDF1CDF47
:100E60001CDF3DDF1DDFFCDEDBD6DBD6FCDE1CDF5E
:100E70001CDFFCD6DBD6BBD6BBD6DBDEFBDEDBDE87
:100E8000BBD6BAD69ACE9AD6BBD61CE77DEF9EF7D4
:100E9000BEF7FFFFFFFFFFFFFFFFFFFFFFFFFFFFAB
:100EA000FFFFFFFFFFFFFFFFFFFFFFFFFFFFFFFF52
:100EB000FFFFFFFFFFFFFFFFFFFFFFFFFFFFFFFF42
:100EC000FFFFFFFFFFFFFFFFFFFFFFFFFFFFFFFF32
:100ED000FFFFFFFFFFFFFFFFFFFFFFFFFFFFFFFF22
:10114000FFFFFFFFFFFFFFFFDFFFDFFFFFFFFFFFEF
:10115000FFFFDFFFFFFFFFFFFFFFFFFFFFFFDFFFDF
:10116000DFFFBFFFBFF7BFF7BFF7DFFFDFFFFFFF07
:10117000FFFFFFFFFFFFFFFFFFFFFFFFFFFFBFF7C7
:101180007EEFFCDEBBD6BBD6DBDEFCDE1CDF1CDF6D
:101190001CDF1CDF3DDF3DE73DE75DE75DE75DE729
:1011A0005DE77DEF7DEF7DEF7DEF7DEF7DE77DE717
:1011B0007DE75DE75DE75DE75DE73DE73DE73DE74F
:1011C0003DE73DE73DDF1CDF1CDF1CDF1CDF1CDFD4
:1011D0001CDF1CDF1CDFFCDEFCDEFCDEFCDEFCDEDC
:1011E000FCDEFCD6DCD6DBD6DCD6DBD6DBD6DCD62A
:1011F000DBD6DBD6BBCE9BCE9BCEBBD6FCDE3DDFAB
:101200005DE7BEF7FFFFDFFFFFFFFFFFFFFFFFFF11
:10121000FFFFFFFFFFFFFFFFFFFFFFFFFFFFFFFFDE
:10122000FFFFFFFFFFFFFFFFFFFFFFFFFFFFFFFFCE
:10123000FFFFFFFFFFFFFFFFFFFFFFFFFFFFFFFFBE
:10124000FFFFFFFFFFFFFFFFFFFFDFFFDFFFFFFFEE
:10125000FFFFFFFFFFFFFFFFFFFFFFFFFFFFFFFF9E
:10126000FFFFFFFFFFFFFFFFFFFFFFFFFFFFFFFF8E
:10127000FFFFFFFFFFFFFFFFDFFFFFFFFFFFFFFF9E
:10128000FFFFFFFFFFFFFFFFFFFFFFFFFFFFFFFF6E
:10129000FFFFFFFFFFFFFFFFFFFFFFFFFFFFFFFF5E
:1012A000FFFFFFFFFFFFFFFFFFFFFFFFFFFFFFFF4E
:1012B000FFFFFFFFFFFFFFFFFFFFFFFFFFFFFFFF3E
:1014C000FFFFFFFFFFFFFFFFDFF7BFF79EEF3DE7E7
:1014D000FCDEBBD6BBD6BBD6DBD6FCDE3DE75EEF83
:1014E0009EEFBFF7BFF7BEF7DFF7DFFFFFFFBFF7E6
:1014F0009EEF1CE7DBDEDBDEFCDE1CDF1CDF1CDF1F
:101500001CDF1CDF1CDF3DE73DE73DE75DE75DE7F6
:101510005DE77DE77DEF7DEF7DE77DE77DE77DE7BB
:101520007DE75DE75DE75DE75DE73DE73DE73DE7DB
:101530003DE73DE73DDF1CDF1CDF1CDF1CDF1CDF60
:101540001CDF1CDF1CDFFCDEFCDEFCDEFCDEFCDE68
:10155000FCDEFCD6DCD6DCD6DCD6DBD6BBD6DBD6D6
:10156000DCD6DBD6BBD6BBCE9BCEBBCEBBD6DBD6CA
:10157000FCDE5DE77DEF7EEFBEF7DFF7FFFFFFFFED
:10158000FFFFFFFFFFFFFFFFFFFFFFFFFFFFFFFF6B
:10159000FFFFFFFFFFFFFFFFFFFFFFFFFFFFFFFF5B
:1015A000FFFFFFFFFFFFFFFFFFFFFFFFFFFFFFFF4B
:1015B000FFFFFFFFFFFFFFFFFFFFFFFFFFFFFFFF3B
:1015C000FFFFFFFFFFFFFFFFFFFFFFFFFFFFFFFF2B
:1015D000FFFFFFFFFFFFFFFFDFFFDFFFFFFFFFFF5B
:1015E000FFFFFFFFFFFFFFFFFFFFFFFFFFFFFFFF0B
:1015F000FFFFFFFFFFFFFFFFFFFFFFFFFFFFFFFFFB
:10160000FFFFFFFFFFFFFFFFFFFFFFFFFFFFFFFFEA
:10161000FFFFFFFFFFFFFFFFFFFFFFFFFFFFFFFFDA
:10183000FFFFFFFFFFFFDFF73DE79BCE5AC65AC60B
:101840005AC65AC67AC67BCE7BCE9BCE9BCEBBCE2B
:10185000DCD61CDF3DE73DE75DE77EEFBEF79EEFA0
:101860007EEF1CDFFCDEFCDE1CDF1CDF1CDF1CDF70
:101870001CDF1CDF3DE73DE75DE75DE75DE75DE71A
:101880005DE77DE77DEF7DEF7DE77DE75DE75DE788
:101890005DE75DE75DE75DE75DE73DE73DE73DDF90
:1018A0003DE73DE73DDF1CDF1CDF1CDF1CDF1CDFED
:1018B0001CDFFCDEFCDEFCDEFCDEFCDEFCD6DCD667
:1018C000DCD6FCD6DCD6DCD6DCD6BBD6BBD6DBD6AB
:1018D000DBD6DBD6BBD6BBCEBBCE9BCE9BCE9BCEC8
:1018E0009BCEBBD6DBD6FBDE1CDF3DE77EEF9EEF5B
:1018F000BFF7DFF7FFFFFFFFFFFFFFFFFFFFFFFF68
:10190000FFFFFFFFFFFFFFFFFFFFFFFFFFFFFFFFE7
:10191000FFFFFFFFFFFFFFFFFFFFFFFFFFFFFFFFD7
:10192000FFFFFFFFFFFFFFFFFFFFFFFFFFFFFFFFC7
:10193000FFFFFFFFFFFFFFFFFFFFFFFFFFFFFFFFB7
:101BA000FFFFFFFFDFF77EEFBBD63ABE19B63ABEA6
:101BB0003ABE5AC65BC67BC67BC67BC67BC69BC687
:101BC0009BCEBBCEBAD6BBD6DBD6FCDE3DE73DE72F
:101BD0001CDFFCDEDBD6FBDE1CDF1CDF1CDF1CDFBA
:101BE0001CDF3DDF3DE75DE75DE75DE75DE75DE766
:101BF0005EE77DEF7DEF7DE77DE77DE77DE75DE7F4
:101C00005DE75DE75DE75DE75DE73DE73DDF3DE71C
:101C10003DDF1CDF1CDF1CDF1CDF1CDF1CDF1CDFCB
:101C2000FCDEFCDEFCDEFCDEFCDEFCDEFCDEFCD6EC
:101C3000FCD6DCD6DBD6DBD6DBD6DBD6BBD6BBD63A
:101C4000BBCEBBCEBBCEBBCEBBCE9BCE9BCE9ACEAD
:101C50007AC69ACE9ACE9ACE9ACE9BCEBBD6DBD6F9
:101C6000FCDE1CDF3DE75DE77EEFBEF7DFFFDFFF59
:101C7000DFFFDFFFDFFFFFFFFFFFFFFFFFFFFFFFD4
:101C8000FFFFFFFFFFFFFFFFFFFFFFFFFFFFFFFF64
:101C9000FFFFFFFFFFFFFFFFFFFFFFFFFFFFFFFF54
:101CA000FFFFFFFFFFFFFFFFFFFFFFFFFFFFFFFF44
:101CB000FFFFFFFFFFFFFFFFFFFFFFFFFFFFFFFF34
:101F1000FFFFDFFF7EEFFCDE39C63ABE5ABE5AC66F
:101F20007BC67BC67BC67BC67BC67BC67BC67BC6A9
:101F30007BC69ACE9ACE9ACEBBD6DBD6DBD6FCD663
:101F4000DCD6DBD6DBD6FCD61CDF1CDF1CDF3DDF9E
:101F50003DDF3DE73DE75DE75DE75DE77EE77EE787
:101F60007EEF7DE77DE77DE77DE75DE75DE75DE7A8
:101F70005DE75DE75DE75DE75DE73DE73DE71CDFCA
:101F80003DDF3DDF1CDF1CDF1CDF1CDF1CDFFCDE58
:101F9000FCDEFCDEFCDEFCDEFCDEFCD6DCD6FCD6A9
:101FA000FCD6DCD6DCD6DCD6DCD6DCD6DBD6BBD6A3
:101FB000BBCE9BCE9BCEBBCEBBCEBBCEBBCE9BCE39
:101FC0009ACEBBD6BBD69BCE7BCE7ACE5AC65AC64D
:101FD0007ACE7ACE7BCE9BCE9BCEDBD6DCDEDCDE31
:101FE000FCDE1DDF3DE75EEF7EEF9EEFBFF7BFF744
:101FF000BFF7DFF7DFF7DFFFDFFFDFFFDFFFFFFF09
:10200000FFFFFFFFFFFFFFFFFFFFFFFFFFFFFFFFE0
:10201000FFFFFFFFFFFFFFFFFFFFFFFFFFFFFFFFD0
:10202000FFFFFFFFDFFFFFFFDFFFDFFFDFFFFFFF40
:10203000FFFFFFFFFFFFFFFFFFFFFFFFFFFFFFFFB0
:10204000FFFFFFFFFFFFFFFFFFFFFFFFFFFFFFFFA0
:10205000FFFFFFFFFFFFFFFFFFFFFFFFFFFFFFFF90
:10206000FFFFFFFFFFFFFFFFFFFFFFFFFFFFFFFF80
:10228000FFFFBFF71CDF9ACE18BE39BE5AC65AC62A
:102290007AC67AC65AC67AC67AC69BCE9BCE9BCEE3
:1022A0009BCEBBCEDBD6BBD6DBD6DCD6DCD6FCD613
:1022B000FCD6FCD6FCD61CDF1CDF3CDF3DDF3DE757
:1022C0003DE73DE75DE75DE75DE77EE77EEF7EEFBB
:1022D0007EEF7DEF7DE75DE77DE77DE75DE75DE72D
:1022E0005DE75DE75DE73CE73DE73CDF1CDF3DDFA9
:1022F0001CDF1CDF1CDF1CDF1CDFFCDE1CDF1CDF27
:10230000FCDEFCDEFCDEFCDEFCDEFCDEFCD6DCD62D
:10231000DCD6DBD6DBD6DBD6DBD6DCD6DBD6BBD653
:102320009BCE9BCE9BCEBBCEBBCEBBCEBBCEBBCEC5
:10233000BBCE9BCE9BCE9BCE9BCE9BCE7BCE7BCE75
:102340007BCE7AC65AC65AC65AC65AC65AC65AC644
:102350005AC65AC65AC67ACE7ACE7ACE9BCE9BCE73
:102360009BCEBBD6DBD6DCD6FCD6FCDE1CDF3DE745
:102370005DE75EE77EEF7EEF7EEF9EF7BEF7BEF78E
:10238000BEF7BEF7DFF7DFF7DFF7FFF7FFFFFFFF6F
:10239000FFFFFFFFFFFFFFFFFFFFFFFFFFFFFFFF4D
:1023A000FFFFFFFFFFFFFFFFFFFFFFFFFFFFFFFF3D
:1023B000FFFFFFFFFFFFFFFFFFFFFFFFFFFFFFFF2D
:1023C000FFFFFFFFFFFFFFFFFFFFFFFFFFFFFFFF1D
:1025F000FFFFBFF7DBDE5ACE39C639C659CE59CEFA
:1026000018C6D7BD56AD149D14A576AD18C67ACEA2
:10261000DBDEDCD6DCD6DCD6DCD6FCD6FCD6FCD6C3
:10262000FCD61CD71DDF1DDF1DDF3DDF3DE73DE78D
:102630003DE75DE75DE75DE75DE75DE77EEF7EEF48
:102640007EEF7DE75DE77DE75DE75DE75DE75DE701
:102650005DE75DE75DE73CE73DE73DDF1DDF3DDF33
:102660001CDF1CDF1CDF1CDF1CDF1CDFFCDEFCDED4
:10267000FCDEFCDEFCDEFCD6FCDEFCDEFCD6DCD6C2
:10268000DCD6DCD6DBD6DBD6DBD6DBD6BBD6BBCE08
:10269000BBCE9BCEBBCE9BCEBBCEBBCEBBCEBBCE32
:1026A0009BCE7BC67BC67BC67BC67BC69BCE9BCEAA
:1026B0009BCE9BCE7BC67BC67BC65AC65AC65AC625
:1026C0005AC65AC63AC63AC63AC63AC639C639C6CC
:1026D00019BEF9BDF9BDF9BDF9BDF9BDF9BD19BE08
:1026E00019BE19BE19BE19BE19BE39C639C63AC6B9
:1026F0005AC67ACE9BCEDCD61DDF5DE79EEF9EEFFD
:102700009EF7BEF7BEF7DFFFFFFFFFFFFFFFFFFFF4
:10271000FFFFFFFFFFFFFFFFFFFFFFFFFFFFFFFFC9
:10272000FFFFFFFFFFFFFFFFFFFFFFFFFFFFFFFFB9
:10273000FFFFFFFFFFFFFFFFFFFFFFFFFFFFFFFFA9
:10274000FFFFFFFFFFFFFFFFFFFFFFFFFFFFFFFF99
:10296000FFFFBFF7DBD65AC659C638C638C639CEC0
:10297000F7BD76B59294CF7BAF7B518C35ADD7BD8B
:102980009AD6DBD6DCCEDCD6DCD6FCD6FCD6FCD6A2
:10299000FCD61CD71DD71CD71CD73DDF3DE73DE734
:1029A0003DE73DE75DE75DE77EE77EE77EEF7EEFB3
:1029B0007EEF7DE77DE75DE75DE75DE75DE75DE78E
:1029C0005DE75DE75DE75DE73CE73DE73DDF1CDF99
:1029D0001CDF1CDF1CDF1CDF1CDF1CDFFCDEFCDE61
:1029E000FCDEFCDEFCDEFCDEFCD6FCD6FCD6DCD657
:1029F000DCD6DCD6DBD6DBD6DBD6BBD6BBCEBBCEBD
:102A0000BBCEBBCEBBCEBBCEBBCE9BCE9ACE9ACEE0
:102A10009ACEBCCEBCCE9BCE9BCE7BC67BC65BC6C5
:102A20005BC65BC65BC67BC67BC65AC65AC65AC661
:102A30005AC65AC65AC63AC63AC63AC63AC63AC636
:102A40003AC61AC61AC61ABE1ABEFABDFABDFABDF1
:102A5000D9BDD9BDD9B5D9B5D9B5D9BDF8BDD8B5C8
:102A6000D8B5D8B5D8B5D8BDF9BD19BE39C639C69F
:102A70005AC6BBD6FBE63CE77DEF9EF7DFFFFFFFC4
:102A8000FFFFFFFFFFFFFFFFFFFFFFFFFFFFFFFF56
:102A9000FFFFFFFFFFFFFFFFFFFFFFFFFFFFFFFF46
:102AA000FFFFFFFFFFFFFFFFFFFFFFFFFFFFFFFF36
:102AB000FFFFFFFFFFFFFFFFFFFFFFFFFFFFFFFF26
:102CD000FFFFBEF7DBDE7ACE59C638C638C638C627
:102CE000F8BD96B592946E6B2D638E73728C14A59D
:102CF000D7BD9BCEDCD6DCD6DCD6DCD6FCD6FCD66B
:102D0000FCD61CDF1CDFFCDEFCD61CDF1CE73DE72D
:102D10003DE73DE75DE75DE75DE77EEF7EEF7EEF58
:102D20007EEF5DE75DE77DEF7DEF7DE75DE73DE70A
:102D30005DE75DE75DE73DE73CE71CDF1CDF1CDF8F
:102D40001DDF1DDF1CDF1CDF1CDF1CDFFCDEFCDEEB
:102D5000FCDEFCDEFCD6FCD6FCD6DCD6FCD6DCD613
:102D6000DCD6DCD6DBD6DBD6DBD6BBD6BBCEBBCE49
:102D7000BBCEBBCEBBCEBBCE9BCE9BCE9ACE9ACE8D
:102D80007ACE9BCEBCCE9CCE9BCE9BC67BC65AC673
:102D90005AC65AC65BC67BC65AC65AC65AC65AC611
:102DA0003AC63AC65AC63AC63AC63AC63AC63AC603
:102DB0003AC63AC63BC63AC61ABE1ABE1ABEFABDD3
:102DC000FABDF9BDF9BDD9B5D9B5F9B5F9B5D8B5DB
:102DD000D8B5B8B5B8AD97AD97AD97AD98AD98AD3E
:102DE000B8B519C659CE9AD6DBDE1CDF5DE79EEF7B
:102DF000BEF7DFF7FFFFFFFFFFFFFFFFFFFFFFFF54
:102E0000FFFFFFFFFFFFFFFFFFFFFFFFFFFFFFFFD2
:102E1000FFFFFFFFFFFFFFFFFFFFFFFFFFFFFFFFC2
:102E2000FFFFFFFFFFFFFFFFFFFFFFFFFFFFFFFFB2
:102E3000FFFFFFFFFFFFFFFFFFFFFFFFFFFFFFFFA2
:10304000DFFF9EF71CE79AD638C639BE5AC65AC665
:1030500059C618BE359DAF730C5B0C5B6E6BAF73BE
:103060005184D7B59ACEBBD6FCD6FCDEFCDEFCDEA6
:10307000FCDE1CDF1CDF1CDFFCDEFBDE1CDF3DE7B3
:103080003DE73DE73DE75DE75DEF5DEF9EEF7EEFFE
:103090003DE73DE75DE77DEF7DEF5DEF3CE73CE73A
:1030A0003DE75DEF3DE73CE71CE71CDF1CDF1DDF74
:1030B0001DDF3DDF1DDF1DDF1CDFFCDEFCDEFCDE77
:1030C000FCDEFCD6FCD6FCD6FCD6FCD6DCD6DCD6A8
:1030D000DCD6DCD6DBD6DBD6DBD6BBCEBBCEBBCEDE
:1030E000BBCEBBCE9BCE9BCE9BCE9BCE9BCE9BCE58
:1030F0009BCE7AC67BC69BCE9BCE9BCE9BCE5AC622
:103100005AC65AC67BC67BC65AC65AC65AC65AC67D
:103110005AC65AC63ABE3ABE3ABE3ABE3ABE3ABE9F
:103120003ABE1ABE1ABE1ABE19BE19BE19BEF9B5EC
:10313000F9B5F9B5F9B5F9B5F9B5F9B5F9B5F9B51F
:10314000D8ADD8ADD8ADD8ADD8ADD8ADB8ADB8AD97
:10315000B8ADB7ADB7ADD7ADF8B5F8B539BE9BC60C
:10316000DCCE3DDF9EE7BEEFBFF7DFFFFFFFFFFFD7
:10317000FFFFFFFFDFFFFFFFFFFFFFFFFFFFFFFF7F
:10318000FFFFFFFFFFFFFFFFFFFFFFFFFFFFFFFF4F
:10319000FFFFFFFFFFFFFFFFFFFFFFFFFFFFFFFF3F
:1031A000FFFFFFFFFFFFFFFFFFFFFFFFFFFFFFFF2F
:1031B000FFFFFFFFFFFFFFFFFFFFFFFFFFFFFFFF1F
:1033B000FFFFBEF73CE7DBDE79CE5AC67AC6BBCE4E
:1033C000DCD6BBCED7B531846E6B0C5B2C634D6BFA
:1033D0008E6BCF73318435A559C6DBD63DDF3DDF1B
:1033E0001CDFFCDEFCDE1CDF3DE73DE73CE73DE7A4
:1033F0003CE73DE75DEF7DEF5DEF3DE75DEF5DEFC6
:103400005DEF5DEF3DE7DBDE79CE9AD63DE75DEF20
:103410003DE71CE71CE71CE71CE73DE73DDF1DDF40
:103420001CDF1CDF1CDFFCDEFCDEFCD6FCD6FCDE79
:10343000FCDEFCD6FCD6FCD6FCD6FCD6DCD6DCD634
:10344000DBD6DBD6DBD6DBD6DBD6BBD6BCCEBBCE63
:10345000BBCEBBCEBBCE9BCE9BCE9BCE9BCE9BCEC4
:103460009BCE7BC67BCE9BCE7AC65AC67AC67BCE17
:103470007BC65AC65AC65AC65AC65AC65AC65AC62B
:103480005AC65AC63ABE3ABE3ABE39BE3ABE3ABE2D
:1034900039BE19BE19BE19BE19BE19BE19BEF9B57D
:1034A000F9B5F9B5F9B5F9B5F9B5F9B5D8ADF9B5D5
:1034B000D8ADD8ADD8ADD8ADD8ADD8ADD8ADB8AD04
:1034C000D8ADB8ADB7ADB7A5B7A597A5B7A5B7ADFA
:1034D000D8AD19B639BE5ABE7AC61DDF7EEFBFF72A
:1034E000DFFFFFFFFFFFFFFFFFFFFFFFFFFFFFFF0C
:1034F000FFFFFFFFFFFFFFFFFFFFFFFFFFFFFFFFDC
:10350000FFFFFFFFFFFFFFFFFFFFFFFFFFFFFFFFCB
:10351000FFFFFFFFFFFFFFFFFFFFFFFFFFFFFFFFBB
:10352000FFFFFFFFFFFFFFFFFFFFFFFFFFFFFFFFAB
:10372000FFFFDFFF7DEF3CE7BAD65AC659BE5AC647
:103730007AC659C696AD5184AF734D6B8E73CF7BED
:103740001084107C107C3184728CD39496AD59C651
:10375000BBD61CDF3DE75DE75DE75DE73DE75DE785
:103760003DE75DE75DEF7DEF5DEF3DE73DE75DE761
:103770003DE73DE73DE71CDF18C638C63CE73DE7BF
:103780001CE73CE75DE73DE71CE73DE73DDFFCDE8E
:10379000FCDEFCDE1CDF1CDFFCDEDCD6DCD6DCD68F
:1037A000FCDEFCD6FCD6FCD6FCD6FCD6DCD6DCD6C1
:1037B000DCD6DBD6DBD6BBD6BBD6BBCEBBCEBBCE38
:1037C000BBCE9BCE9BCE9BCE9BCE9BCE9BCE9BCE91
:1037D0009BCE9BCE9BCE9BCE5AC63ABE5AC69BCEA4
:1037E0009BCE5AC639BE3ABE5AC65AC65AC65AC6E1
:1037F0005AC65AC63ABE3ABE3ABE3ABE39BE39BEBB
:1038000019BE19BE19BE19BE19BE19BEF9B5F9B552
:10381000F9B5F9B5F9B5F9B5F9B5F9B5D8ADF9B561
:10382000D8ADD8ADD8ADD8ADD8ADB8ADD8ADD8AD90
:10383000B8ADD8ADD8ADB7AD97A597A577A576A506
:1038400076A576A597A597A597A5F8B539BE9BCE81
:103850001CDF5DE7BEF7DFFFFFFFFFFFFFFFFFFF9E
:10386000DFFFFFFFFFFFFFFFFFFFFFFFFFFFFFFF88
:10387000FFFFFFFFFFFFFFFFFFFFFFFFFFFFFFFF58
:10388000FFFFFFFFFFFFFFFFFFFFFFFFFFFFFFFF48
:10389000FFFFFFFFFFFFFFFFFFFFFFFFFFFFFFFF38
:1038A000FFFFFFFFFFFFFFFFFFFFFFFFFFFFFFFF28
:103A9000FFFFFFFF9EF75DEFFBDE39C6D7B576A5CA
:103AA000359DF49C728CCF738E73AE731084718CC1
:103AB000B294F49CD394728C107C107C3184928CE0
:103AC000D39476AD18C69ACE1CDF3CE73CE75DEF99
:103AD0005DEF5DEF5DEF7DEF7EEF9EEF7EEF5DEFE3
:103AE0003CE75DEF7EEFFCDEF49CD39C9AD67DEF45
:103AF0007EEF5DE71CE71CE73CE71CDFFCDEFCD645
:103B0000DCD6FCDE3DDF3DE73DDFFCDEDCD6DCD68F
:103B1000FCDEFCD6DCD6FCD6DCD6DCD6DBD6DBD6AF
:103B2000DBD6DBD6DBD6DBD6BBD6BBCEBBCEBBCEA5
:103B3000BBCEBBCE9BCE9BCE9BCE9BCE7BCE7BCE3D
:103B40007BCE9BCE9BCE7AC65AC65AC67AC67AC65A
:103B50007AC65AC65AC65AC65AC65ABE5ABE5ABE5D
:103B60005ABE5ABE3ABE39BE39BE3ABE39BE39BE59
:103B700039BE19BE19B619BE19B619B6F9B5F9B5D7
:103B8000F9B5F9B5F9B5F9B5F9B5F9B5F9ADD8ADF6
:103B9000D8ADD8ADD8ADD8ADD8ADD8ADB8ADB8AD3D
:103BA000B8ADB8ADB8ADB8ADB8ADB8AD97A597A53F
:103BB00097A597A597A5B8AD97A556A555A596A580
:103BC000D8B519BEBBCE3DE79EEFDFF7FFFFFFFF85
:103BD000DFFFFFFFFFFFFFFFFFFFFFFFFFFFFFFF15
:103BE000FFFFFFFFFFFFFFFFFFFFFFFFFFFFFFFFE5
:103BF000FFFFFFFFFFFFFFFFFFFFFFFFFFFFFFFFD5
:103C0000FFFFFFFFFFFFFFFFFFFFFFFFFFFFFFFFC4
:103C1000FFFFFFFFFFFFFFFFFFFFFFFFFFFFFFFFB4
:103E0000FFFFFFFFBEF77DEF1CDF7ACE18BE55A582
:103E1000D394728C3084F07B107C3084B294F39C09
:103E200034A596AD96B576AD55A514A5B29410847B
:103E3000CF73AE73EF7B5184F39CD7B539C6BAD636
:103E40003DE77DEF7DEF5DE73DE73CE73DE73DE7A3
:103E50005DEF5DE75DEFDBDE107C2C63518CD7BD41
:103E6000BAD63CE71CE71CDF1CE71DDF1DDF1CDFAB
:103E7000FCDE1CDF1DDF1DDF1DDFFCDEFCD6FCDEF3
:103E8000FCDEFCD6DCD6FCD6DCD6DCD6DCD6DBD63B
:103E9000DBD6BBD6BBCEBBCEBBCEBBCE9BCEBBCECA
:103EA0009BCE9BCE9BCE9BCE9BCE9BCE9ACE9ACECC
:103EB0009ACE9BCE7ACE5AC67AC67BCE9ACE5AC6B8
:103EC0005AC67AC67AC65AC619BE3ABE5ABE5ABE33
:103ED0005ABE5ABE3ABE3ABE3ABE39BE39BE19BE05
:103EE00019BE19B619B619B619B619B6F9B5F9B594
:103EF000F9B5F9B5F9B5F9B5F9B5D8ADD8ADD8ADCD
:103F0000D8ADD8ADD8ADB8ADB8ADB8ADB8ADB8AD29
:103F1000B8ADB8ADD8ADD8ADB8ADB8ADB8ADB8AD39
:103F200098A597A577A577A577A597A597A5569D59
:103F3000569D56A5B7AD19BE7AC6FCD65EE79EEF74
:103F4000DFF7DFFFDFFFFFFFFFFFFFFFFFFFFFFFE9
:103F5000FFFFFFFFFFFFFFFFFFFFFFFFFFFFFFFF71
:103F6000FFFFFFFFFFFFFFFFFFFFFFFFFFFFFFFF61
:103F7000FFFFFFFFFFFFFFFFFFFFFFFFFFFFFFFF51
:103F8000FFFFFFFFFFFFFFFFFFFFFFFFFFFFFFFF41
:10417000FFFFDFFFBEF77DEF3CE7FBDE9ACED7B552
:1041800035A5F39CB294B294B294F39C54AD95B51A
:10419000D7BD58CE59CE38C618C6F7BD96B534A58A
:1041A000D39C3084CF7B8E738E736E6BAE733184F1
:1041B00034A5D7BDBAD63DE77DEF7DEF3DE73DE7BE
:1041C0005DE73CE75DE7DBDE1084AA522842EC5A4B
:1041D000F07B96B579CEDBDE3DE73DE73DDF3DE7A1
:1041E0003DDF1DDFFCDEDCD6DBD6DBD6DCD6FCD645
:1041F000FCDEFCD6DCD6DCD6DCD6DBD6DCD6DBD6E9
:10420000DBD6DBD6BBD6BBCEBBCEBBCE9BCEBBCE2E
:104210009BCE9BCE9BCE9BCE9BCE7BCE7BC67BC6C6
:104220007BCE9BCE9BCE3AC65AC67AC67AC65AC6B3
:104230005AC67BC65AC6F8B577AD19BE5AC63ABE3D
:104240003ABE3ABE3ABE3ABE3ABE39BE19BE19BEF1
:1042500019BE19BEF9B519B6F9B5F9B5F9B5F9B57B
:10426000F9B5F9B5D8B5D8B5D9B5D8ADD8ADD8ADBB
:10427000D8ADD8ADD8ADD8ADD8ADB8ADB8ADB8AD76
:10428000B8ADB8ADD8ADB8ADB8ADB8ADB8AD98A50E
:1042900097A577A577A577A577A598A5B8A597A59C
:1042A00077A5769D76A576A597ADF8B59BCE1CD75C
:1042B0007EE79EEF9EF7BEF7FFFFFFFFFFFFFFFFCA
:1042C000FFFFFFFFFFFFFFFFFFFFFFFFFFFFFFFFFE
:1042D000FFFFFFFFFFFFFFFFFFFFFFFFFFFFFFFFEE
:1042E000FFFFFFFFFFFFFFFFFFFFFFFFFFFFFFFFDE
:1042F000FFFFFFFFFFFFFFFFFFFFFFFFFFFFFFFFCE
:1044E000FFFFFFFFBEF79EF75DEFFCDEBAD6F8BD1B
:1044F00096AD55AD14A514A514A534AD95B5D7C585
:1045000058CEBAD6FBDEFBDEDBDEBAD659CEF7BD1F
:1045100096B514A59294718C1084CF738E6B2D6315
:104520004D6BAE73B294F8BDDBDE9EF7BEF77EEF47
:104530005DEF9EEF5DEF38C6AF736A4AE8392842F7
:104540008A52AE73D39CB7B5FBDEFCDEFCDE3DDFEA
:104550003DE73DDFFCD6BBD6BBD6DBD6FCD6FCDECA
:10456000FCD6DCD6DCD6DCD6DCD6DCD6DBD6DBD69D
:10457000DBD6BBD6BBD6BBD6BBCEBBCEBBCE9BCED3
:104580009BCE9BCE9BCE9BCE9BCE9BCE7BCE7BC62B
:104590007BCE9BCE7BCE5AC65AC65AC65AC67AC660
:1045A0007AC65AC6D8B556A5159DF9B55AC65AC683
:1045B0003ABE3ABE3ABE39BE39BE19BE19BE19BEA0
:1045C00019BE19BE19BEF9B5F9B5F9B5F9B5F9B500
:1045D000F9B5F9B5D9B5D8B5D9B5D8ADD8ADD8AD47
:1045E000D8ADD8ADD8ADB8ADB8ADB8ADB8ADB8AD43
:1045F000B8ADB8ADB8ADB8ADB8ADB8ADB8AD98A5BB
:1046000098A598A598A578A597A5779D779D77A556
:1046100097A597A577A5569D569D97A5F9B55AC616
:10462000DCD61CE73CEF7DEFBEF7DFFFFFFFFFFFAF
:10463000FFFFFFFFFFFFFFFFFFFFFFFFFFFFFFFF8A
:10464000FFFFFFFFFFFFFFFFFFFFFFFFFFFFFFFF7A
:10465000FFFFFFFFFFFFFFFFFFFFFFFFFFFFFFFF6A
:10466000FFFFFFFFFFFFFFFFFFFFFFFFFFFFFFFF5A
:10485000FFFFFFFFDFFFBEF77DEF1CE7DBD639C6AA
:10486000D7BDB6B575AD95B595B575B5D6BD18CEF0
:1048700099D6FBDE1CE73CE73CE71CE7BAD659CEED
:1048800018C6B6B534A5F39CB2945184EF7B4D6B3A
:104890000C630C63AF7314A518C65DEFDFF7BEF7AA
:1048A0007DEF9EF71CE755A50C63494A2842494A0B
:1048B0006A4AEC5ACF7BB294F7BD9ACEDBD61CDFA6
:1048C0003DE73DE7FCDEDBD6BBD6DCD6FCDEFCDE1E
:1048D000DCD6DCD6DCD6DCD6DCD6DCD6DBD6BBD66A
:1048E000BBD6BBCEBBD6BBD6BBCEBBCEBBCE9BCE88
:1048F0009BCE9BCE9BCE9BCE9BCE9BCE7BCE7BC6B8
:104900007BC67BCE7BC65AC65AC65AC65AC67BCE13
:104910007BCE39BE77A5159DF494F9B55AC65AC613
:104920003ABE3ABE39BE19BE19BE19BE19BE19BE6D
:1049300019BE19BE19BEF9B5F9B5F9B5F9B5F9B58C
:10494000F9B5F9B5D9B5D8B5D8B5D8ADD8ADD8ADD4
:10495000D8ADD8ADB8ADB8ADB8ADB8ADB8ADB8ADEF
:10496000B8ADB8ADB8ADB8ADB8ADB8AD98A598A56F
:1049700098A598A598A598A598A5779D779D779DCA
:1049800097A597A597A5569D569D56A5B7ADF8B581
:104990005AC6DBDE1CE75DEF9EF7BEF7DFFFFFFFC9
:1049A000FFFFFFFFFFFFFFFFFFFFFFFFFFFFFFFF17
:1049B000FFFFFFFFFFFFFFFFFFFFFFFFFFFFFFFF07
:1049C000FFFFFFFFFFFFFFFFFFFFFFFFFFFFFFFFF7
:1049D000FFFFFFFFFFFFFFFFFFFFFFFFFFFFFFFFE7
:104BC000FFFFFFFFDFFFDFFF9EF77DEF3CE7DBDE50
:104BD0009AD679CE38C658CE38CE18C659CE99D680
:104BE000FBE63CE75CEF5DEF5DEF3CEFFBE6BAD642
:104BF00099D658CEF7BDB6B555ADD39C9294728C6C
:104C00003084EF7BAE733184F49C59CE1CE73CE7D3
:104C1000FBDEBAD6D7BDAE73294208428A52EC5A9F
:104C20000C630C632D636D6B108476AD18BE9ACE49
:104C3000FCDE1DDF1CDFFCDEFCDEFCDEFCDEFCDE61
:104C4000DBD6DBD6DCD6DCD6DCD6DCD6DBD6BBD6F8
:104C5000BBD6BBD6BBCEBBCEBBCE9BCE9BCE9BCE5C
:104C60009BCE9BCE9BCE9BCE9BCE9BCE7BCE7BC644
:104C70007BC67AC65AC65AC65AC65AC65AC69BCEAA
:104C80007BCED8B5B38C7284D494F9B55AC65ABECB
:104C90003ABE3ABE3ABE19BE19BE19BE19BE19BEF9
:104CA00019BEF9B5F9B5F9B5F9B5F9B5F9B5F9B56B
:104CB000F9B5F9B5D9B5D8B5D8B5D8ADD8ADD8AD61
:104CC000D8ADD8ADD8ADB8ADB8ADB8ADB8ADB8AD5C
:104CD000B8AD98A598A598A598A598A598A598A5C4
:104CE00098A577A577A577A577A598A5989D779D91
:104CF000779D779D779D569D569D369D569D569DD9
:104D0000B7AD79CEBADEFCDE7DEF9EF7BEF7DFFFF2
:104D1000DFFFDFFFFFFFFFFFFFFFFFFFFFFFFFFFE3
:104D2000FFFFFFFFFFFFFFFFFFFFFFFFFFFFFFFF93
:104D3000FFFFFFFFFFFFFFFFFFFFFFFFFFFFFFFF83
:104D4000FFFFFFFFFFFFFFFFFFFFFFFFFFFFFFFF73
:104D5000FFFFFFFFFFFFFFFFFFFFFFFFFFFFFFFF63
:104F3000FFFFFFFFFFFFFFFFDFFFBEF77DEF5DEF2E
:104F40001CE7FBDEDBDEDBDEDBDEDBDEFBE61CE7BD
:104F50003CEF7DEF9EF7BEF7BEF7BEF79EF77DEF05
:104F60003CE7FBDEBAD69AD659CEF7BDD7BD96B58B
:104F700055ADF39C9294518C518C518C718C718CE9
:104F8000518C6D6B0C63CB5AAA52CB5A2C638E7327
:104F9000CF7BEF7B10841084EF7BCF7BF07B728C18
:104FA00035A5B7B57ACEDBDEFCDEFCDEFCDEFCDE52
:104FB000FCDEDCD6BBD6DCD6BCD6BCD6BCD6BBD6DB
:104FC000BBD6BBCE9BCE9BCE9BCE9BCE7BCE7BCE91
:104FD0007BCE7BCE7BCE7BCE7BCE7BCE7BCE7BCE89
:104FE0007BCE9ACE7ACE59C659C67AC659C639C62C
:104FF000B7B552848A4AEC5255A539BE5AC659BE35
:105000003ABE3ABE39BE3ABE3ABE1ABE19BEF9BD64
:10501000F9BDF9B5F9B5F9B5F9B5F9B5F9B5F9B518
:10502000F9B5F9B5D9B5D8B5D8B5D8ADD8ADD8ADED
:10503000D8ADD8ADD8ADB8ADB8ADB8ADB8ADB8ADE8
:10504000B8ADB8AD98A598A598A598A598A598A528
:1050500098A598A577A577A577A5789D789D789D43
:1050600078A578A5789D789D779D579D369536953E
:10507000369D97ADD7B579C61BDF5CE77DEF9DF711
:10508000BEF7DFFFDFFFDFFFDFFFFFFFFFFFFFFFF9
:10509000FFFFFFFFFFFFFFFFFFFFFFFFFFFFFFFF20
:1050A000FFFFFFFFFFFFFFFFFFFFFFFFFFFFFFFF10
:1050B000FFFFFFFFFFFFFFFFFFFFFFFFFFFFFFFF00
:1050C000FFFFFFFFFFFFFFFFFFFFFFFFFFFFFFFFF0
:1052A000FFFFFFFFFFFFFFFFFFFFDFFFBEF7BEF7C0
:1052B0009EF77DEF5DEF5DEF5DEF5DEF7DEF9EF7BC
:1052C0009EF7DFFFDFFFDFFFFFFFFFFFDFFFDFFFF7
:1052D000BEF77DEF5DEF3CE71CE7DBDEBAD679CEAB
:1052E00038C618C6B6B555AD14A59294308410844E
:1052F000CF7B4D6B2C632C632C634D6BAE73108492
:10530000518CB294D39CD39CD39CB394728CF08375
:10531000AF73AF733184D39C55ADF8BD5ACE9AD6D6
:10532000BBD6FCDEFDDEFCDEFCDEDCD6DCD6BCD68D
:10533000BBD6BBD6BBD6BBD6BBD6DCD6DCD6BCD6A2
:105340009BCE9BCE7BCE7BCE7BCE7BCE9BCE9BCE95
:105350009BCE9ACE9ACE7ACE59C618BE35A5518428
:105360008E6B8A4A86298A4AB7B55AC639BE39BE73
:1053700039BE3ABE3ABE3ABE3ABE1ABE1ABEFABDEF
:10538000F9BDF9B5F9B5F9B5F9B5F9B5F9B5F9B5A5
:10539000D9B5D8B5D9B5D9B5D8B5D8ADD8ADD8ADBA
:1053A000D8ADD8ADD8ADB8ADB8ADB8ADB8ADB8AD75
:1053B000B8ADB8ADB8AD98A598A598A598A598A58D
:1053C00098A598A577A577A577A5779D779D78A5CA
:1053D00098A578A5579D579D579D579D579D579DBB
:1053E000579D359D559DD7AD59C6BACE1BDF7CEF75
:1053F0009DF7DEFFDFFFFFFFDFFFFFFFFFFFFFFF88
:10540000FFFFFFFFFFFFFFFFFFFFFFFFFFFFFFFFAC
:10541000FFFFFFFFFFFFFFFFFFFFFFFFFFFFFFFF9C
:10542000FFFFFFFFFFFFFFFFFFFFFFFFFFFFFFFF8C
:10543000FFFFFFFFFFFFFFFFFFFFFFFFFFFFFFFF7C
:10563000DFFFFFFFFFFFFFFFFFFFFFFFFFFFFFFF9A
:10564000FFFFDFFFBEF7BEF79EF77DEF5DEF3CE7A4
:105650001CE7FBDEBAD659CE18C6B6B534A5D39C26
:1056600092943084EF7BEF7B10843084718CD39CD8
:1056700034A575ADB6B5D7BDB7B596B576AD14A59D
:10568000B294518CEF7BAE738E73CF7B518C92941E
:1056900014A539C69ACE7ACE9ACE9BCEBBCEBBD6B7
:1056A000BBD6DBD6BBD6BBD6BBD6BBD6BBD6BBD652
:1056B000BBD6BBD69BCE9BCE7BCE5AC65AC63AC66D
:1056C00039C6F8BDB7ADF49C107C6E6B8A4A29428E
:1056D000083A2942083A2D63F8B55AC639BE39BE90
:1056E00039BE39BE39BE39BE19BE1ABE1ABEFABDA0
:1056F000F9BDF9B5F9B5F9B5F9B5F9B5F9B5F9B532
:10570000F9B5D9B5D8B5D8B5D8B5D8ADD8ADD8AD27
:10571000D8ADD8ADD8ADB8ADB8ADB8ADB8ADB8AD01
:10572000B8AD98A598A598A598A598A598A577A58A
:1057300077A598A577A577A577A5779D779D77A578
:1057400098A577A5579D379D379D379D369D369DEA
:10575000579DF594F494359D96A5F7B579CE1BDF4A
:105760005CE79EF7BFFFDFFFDFFFFFFFFFFFFFFFED
:10577000FFFFFFFFFFFFFFFFFFFFFFFFFFFFFFFF39
:10578000FFFFFFFFFFFFFFFFFFFFFFFFFFFFFFFF29
:10579000FFFFFFFFFFFFFFFFFFFFFFFFFFFFFFFF19
:1057A000FFFFFFFFFFFFFFFFFFFFFFFFFFFFFFFF09
:1059B000FFFFFFFFFFFFFFFFFFFFDFFFDFFFBEF780
:1059C0009EF77DEF3CE71CE7FBDE9AD638C618C68B
:1059D000B6B534A5F39CF39C14A514A555ADB6B586
:1059E000F7BD59CE9AD6BAD6BAD69AD679CE18C6B7
:1059F000B6B575AD14A592943084EF7B8E736E6B43
:105A00004D6B4D634E6B8F73107C5184D39456ADA8
:105A1000B7B518BE39C659C659C619BE18BE39C65B
:105A200039C639C619C6D8BD96ADF49C728C117CA6
:105A3000AF73EC5A8A4A8A4A8A4A49422942494201
:105A40008A4ACB52EB5AAE7396AD39BE39BE39BED7
:105A500039BE39BE39BE39BE39BE19BE1ABE1ABEEC
:105A600019B6F9B5F9B5F9B5F9B5F9B5F9B5F8B5A6
:105A7000D8B5F9B5D8B5D8B5D8B5D8ADD8ADD8ADB5
:105A8000D8ADB8ADB8ADB8ADB8ADB8ADB8ADB8ADCE
:105A900098A598A598A598A598A598A598A598A51E
:105AA00098A577A577A577A577A5579D579D77A545
:105AB00077A5579D369D579D77A5579DF594F594ED
:105AC000369D369D1595F494149555A5F7B599CE48
:105AD000FADE3CE77EF79FF7DFFFFFFFFFFFFFFFE8
:105AE000FFFFFFFFFFFFFFFFFFFFFFFFFFFFFFFFC6
:105AF000FFFFFFFFFFFFFFFFFFFFFFFFFFFFFFFFB6
:105B0000FFFFFFFFFFFFFFFFFFFFFFFFFFFFFFFFA5
:105B1000FFFFFFFFFFFFFFFFFFFFFFFFFFFFFFFF95
:105D3000DFFFBEF7BEF79EF77DEF3CE7FBDEBAD68E
:105D400079CE18C6F7BDF7BDF7BD18C638C679CEEF
:105D5000BAD6FBDE3CE73CE75DEF5DEF3CE7DBDE20
:105D600079CE38C6D7BD96B575AD14A59294518C31
:105D7000EF7B6E6B4D6B4D632D632D632D632D6338
:105D80000C63EC5ACB5ACB52AB52AB52AB52AB5228
:105D9000AB52AB52AB52AA528A528A528A528A52A0
:105DA0006A4A28422842694AAA52AB52AB52EB5A7D
:105DB0000C636D6B6E6BEF7B14A5F8B539BE39BE05
:105DC00019BE19BE19BE19BE19BE19BE19BEF9B544
:105DD00019B6F9B5F9B5F9B5F9B5F9B5F9B5F9B532
:105DE000F9B5D8B5D8B5D8ADD8ADD8ADD8ADB8AD72
:105DF000D8ADD8ADB8ADB8ADB8ADB8ADB8AD97A564
:105E000097A598A598A598A598A598A577A598A5CC
:105E100098A577A577A577A577A5579D57A577A5C9
:105E2000569DF5947384B48C169D97A556A5369D02
:105E3000369D579D379DF594D48C149575A517BE46
:105E400079CEDBDE5DEF9EF7BFFFDFFFDFFFDFFF19
:105E5000FFFFFFFFFFFFFFFFFFFFFFFFFFFFFFFF52
:105E6000FFFFFFFFFFFFFFFFFFFFFFFFFFFFFFFF42
:105E7000FFFFFFFFFFFFFFFFFFFFFFFFFFFFFFFF32
:105E8000FFFFFFFFFFFFFFFFFFFFFFFFFFFFFFFF22
:1060A000FFFFFFFFFFFFFFFFDFFFBEF77DEF5DEFAD
:1060B0001CE7FBDEDBDEDBDEDBDEDBDEFBDE1CE744
:1060C0003CE77DEF9EF79EF79EF79DF79DEF9DEFD6
:1060D0007DEF3CE7DADE59CE17C6B6B575AD54ADE7
:1060E00014A5B394728C318CF07BCF7B8E736E6B66
:1060F0004D6B2D630C63EC5AEC5ACB5AAA52AB5A37
:10610000AA52AA52AA52AA52AA52AA52AB52AB52AD
:10611000CB5A0C5B0C630C632C632C636D6BCF7BD5
:106120003084728C92949294149DD8B519BE19BE85
:1061300019BE19BE19BE19BE19BE19BEF9BDF9BDE9
:10614000F9B5F9B5F9B5F9B5F9B5F9B5F9B5D9B5FF
:10615000D9B5D8B5D8B5D8B5D8B5D8ADB8ADD8AD0E
:10616000B8ADB8ADB8ADB8ADB8AD97A5B8ADB8AD30
:1061700097A598A598A598A598A598A598A577A559
:1061800077A577A577A577A577A5569D56A577A579
:10619000569DB48C8F6B8F63327C56A5B8AD77A5B6
:1061A000369D579D589D1695D494F494349D95AD85
:1061B000F7B599CE1CE77DEFBFF7DFFFDFFFDFFF0D
:1061C000FFFFFFFFFFFFFFFFFFFFFFFFFFFFFFFFDF
:1061D000FFFFFFFFFFFFFFFFFFFFFFFFFFFFFFFFCF
:1061E000FFFFFFFFFFFFFFFFFFFFFFFFFFFFFFFFBF
:1061F000FFFFFFFFFFFFFFFFFFFFFFFFFFFFFFFFAF
:10640000FFFFFFFFFFFFFFFFFFFFDFFFDFFFDFFFFC
:10641000FFFFFFFFFFFFFFFFFFFFDFFFBEF7BEF73E
:106420009EF77DEF5DEF5DEF5DEF5DEF5DEF9EF75A
:106430009EF7BEF7DFFFDFFFDFFFBEF7BDF7BEF75A
:10644000BDF79DEF5CE71BE7FBDEBAD658CE17C65B
:10645000D6BD75AD35A5F49C9294718C3084F07BDB
:10646000EF7BCF7BAE738E736E6B4D6B4C6B4C6B57
:106470004C6B4C6B2C632C6B4C6B4D6B6D6B6D6B69
:106480006D6B8E73AE73CF7B10843084518C92947D
:10649000B29414A555AD75AD96B5F8B519B618B644
:1064A00019BE19BE19BE19BE19BE19BEF9BDF9BD76
:1064B000F9B5F9B5F9B5F9B5F9B5F9B5D9B5D8B5AD
:1064C000D8B5D8B5D8B5D8B5D8ADD8ADD8ADD8AD84
:1064D000B8ADB8ADB8ADB8ADB8ADB8AD97A597A5E6
:1064E00097A598A598A598A598A598A598A577A5E6
:1064F00077A577A577A577A577A556A556A577A5FE
:1065000077A5D48C4E63AC4A0E5B938C56A577A5C9
:10651000369D379D38951695F594F4941495349DD1
:1065200095AD38C6DBDE3CE79EF7BEF7DFFFDFFF49
:10653000FFFFFFFFFFFFFFFFFFFFFFFFFFFFFFFF6B
:10654000FFFFFFFFFFFFFFFFFFFFFFFFFFFFFFFF5B
:10655000FFFFFFFFFFFFFFFFFFFFFFFFFFFFFFFF4B
:10656000FFFFFFFFFFFFFFFFFFFFFFFFFFFFFFFF3B
:10677000FFFFFFFFFFFFFFFFFFFFDFFFDFFFDFFF89
:10678000FFFFFFFFFFFFFFFFFFFFFFFFDFFFDFFF59
:10679000BEF79EF79EF77DEF7DEF9EF79EF7BEF763
:1067A000BEF7DFFFFFFFFFFFFFFFDEFFDEF7DEF7D5
:1067B000BEF7BDF77DEF7CEF5CEF3BE7DADE99D605
:1067C00038C6F7BDB7B575AD14A5F39CB3949294D4
:1067D000728C518C1084107CEF7BCE7BCE7BAE73A1
:1067E000AE73AE738E73AE73AE73CE7BCF7BEF7B27
:1067F000EF7B10841084518C9294B29CF39C14A56E
:1068000034A575ADD7BDF7BDF7BDF8B5F8B5F8B58A
:1068100019BE19BE19BE19BE19BE19BEF9BDF9BD02
:10682000F9B5F9B5F9B5F9B5F9B5F9B5D8B5D8B53A
:10683000D8B5D8B5D8B5D8B5B8ADD8ADD8ADD8AD30
:10684000B8ADB8ADB8ADB8ADB8ADB8AD97A597A572
:1068500097A598A598A598A598A598A598A577A572
:1068600077A577A577A577A577A577A556A577A569
:1068700097ADF5946F634A428B4AF173F594369D58
:10688000369D3795179517951595F494F394139DA8
:1068900054A5F7BDBAD61BE77DEFBEF7DFFFDFFFDC
:1068A000FFFFFFFFFFFFFFFFFFFFFFFFFFFFFFFFF8
:1068B000FFFFFFFFFFFFFFFFFFFFFFFFFFFFFFFFE8
:1068C000FFFFFFFFFFFFFFFFFFFFFFFFFFFFFFFFD8
:1068D000FFFFFFFFFFFFFFFFFFFFFFFFFFFFFFFFC8
:106B0000FFFFBEF7BEF7BEF7BEF7BEF7DFFFDFFF42
:106B1000FFFFFFFFFFFFFFFFFFFFFFFFFFFFFFFF85
:106B2000FFFFDEFFBEF79DF77DEF5CEF3CE71BE765
:106B3000DADE9AD67ACE39CEF8C5D7BDB6B576B5F7
:106B400075AD35A5F49CD39CB294B2949294929472
:106B500071947194718C718C718C719491949294E4
:106B6000B294D29CD39CF3A434A555ADB6B5D7BD91
:106B7000F7BD38CE9AD69AD679CE39BE18B6F8B5C2
:106B8000F8B519B619BE19BE19BE19BEF9BDF9BDC1
:106B9000F9B5F9B5F9B5F9B5F9B5D9B5D9B5D8B5E6
:106BA000D8B5D8B5D8B5D8B5B8ADD8ADD8ADB8ADDD
:106BB000B8ADB8ADB8ADB8ADB8ADB8AD97A597A5FF
:106BC00097A598A598A598A598A577A598A577A520
:106BD00077A577A577A577A577A577A557A556A516
:106BE00098AD56A5D0732A3AE931ED52117CB48C98
:106BF000169D17951895379D369D1595F494F39429
:106C0000149DB6B559CEBAD63CE79EF7DFFFDFFF3D
:106C1000DFFFFFFFFFFFFFFFFFFFFFFFFFFFFFFFA4
:106C2000FFFFFFFFFFFFFFFFFFFFFFFFFFFFFFFF74
:106C3000FFFFFFFFFFFFFFFFFFFFFFFFFFFFFFFF64
:106C4000FFFFFFFFFFFFFFFFFFFFFFFFFFFFFFFF54
:106C5000FFFFFFFFFFFFFFFFFFFFFFFFFFFFFFFF44
:106C6000FFFFFFFFFFFFDFFFDFF7BEF7BEF7BEF757
:106C7000BEF7BEF7BEF7DFF7DFFFFFFFFFFFFFFF47
:106C8000FFFFFFFFFFFFFFFFFFFFFFFFFFFFFFFF14
:106C9000FFFFFFFFFFFFFFFFFFFFFFFFFFFFFFFF04
:106CA000FFFFFFFFFFFFFFFFFFFFFFFFFFFFFFFFF4
:106CB000FFFFFFFFFFFFFFFFFFFFFFFFFFFFFFFFE4
:106CC000FFFFFFFFFFFFFFFFFFFFFFFFFFFFFFFFD4
:106CD000FFFFFFFFDFFFBEF7BEF79EF79EF77DEFDA
:106CE0005DEF5DE73CE73CE73DE75DEF7DEF7DEF86
:106CF0009EF7BEF7DFFFFFFFFFFFFFFFFFFFFFFF76
:106D0000FFFFFFFFFFFFFFFFDFFFDFFFFFFFFFFFD3
:106D1000FFFFFFFFFFFFFFFFFFFFDEFFDFFFDFFFE4
:106D2000FFFFFFFFFFFFFFFFFFFFFFFFFFFFFFFF73
:106D3000FFFFFFFFFFFFFFFFFFFFDFFFDFFFFFFFA3
:106D4000FFFFFFFFFFFFFFFFFFFFFFFFFFFFFFFF53
:106D5000FFFFFFFFFFFFFFFFFFFFFFFFFFFFFFFF43
:106D6000FFFFFFFFFFFFFFFFFFFFFFFFDFFFFFFF53
:106D7000FFFFFFFFFFFFFFFFFFFFFFFFFFFFFFFF23
:106D8000FFFFFFFFFFFFFFFFFFFFFFFFFFFFFFFF13
:106D9000FFFFFFFFFFFFFFFFFFFFFFFFFFFFFFFF03
:106DA000DFFFDFFFDFFFFFFFFFFFFFFFFFFFFFFF53
:106DB000FFFFFFFFFFFFFFFFFFFFFFFFFFFFFFFFE3
:106DC000FFFFFFFFFFFFFFFFFFFFFFFFFFFFFFFFD3
:106DD000FFFFFFFFFFFFFFFFFFFFFFFFFFFFFFFFC3
:106DE000FFFFFFFFFFFFFFFFFFFFFFFFFFFFFFFFB3
:106DF000FFFFFFFFFFFFFFFFFFFFFFFFFFFFFFFFA3
:106E0000FFFFFFFFFFFFFFFFFFFFFFFFFFFFFFFF92
:106E1000FFFFFFFFDFFFFFFFFFFFFFFFFFFFFFFFA2
:106E2000FFFFFFFFFFFFFFFFFFFFFFFFFFFFFFFF72
:106E3000FFFFFFFFFFFFFFFFFFFFFFFFFFFFFFFF62
:106E4000FFFFFFFFFFFFDFFFFFFFFFFFFFFFFFFF72
:106E5000FFFFDFFFFFFFFFFFFFFFFFFFFFFFFFFF62
:106E6000FFFFFFFFFFFFFFFFFFFFFFFFFFFFFFFF32
:106E7000FFFFFFFFFFFFFFFFFFFFFFFFFFFFFFFF22
:106E8000FFFFFFFFFFFFFFFFFFFFFFFFFFFFFFFF12
:106E9000FFFFFFFFFFFFFFFFDFFFBEF79EF79DF73E
:106EA0007DEF5DEF3CE71CDFDBDEBAD69ACE79CE14
:106EB00059CE38C618C6F8BDD7BDB7BD96BDB6BD4C
:106EC00096B596B576B576B576B576B596BDB6BDBA
:106ED000B7BDF7BDF7BD17BE18C638C679CEBAD64E
:106EE000DBDE1BDF3CE73CE73CE7FADE99CE38BE51
:106EF000B6B596AD97ADD8B5F9B51ABE1ABEFAB506
:106F0000D9B5F9B5F9B5F9B5F9B5F9B5F9B5D8AD5A
:106F1000D8ADD8ADD8ADD8ADD8ADD8ADD9ADB8AD68
:106F2000B8ADB8ADB8ADB8ADB8ADB8AD98A598A589
:106F300098A598A598A598A598A598A577A577A5AB
:106F400077A577A577A577A577A5579D579D579DD9
:106F500057A5369D327C6A4A083AAB522C638E7331
:106F60005184179558955895579537951695F594DA
:106F7000F59C35A5B7B519C6BBDE5DEF9EEFBEF734
:106F8000FFFFFFFFFFFFFFFFFFFFFFFFFFFFFFFF11
:106F9000DFFFFFFFFFFFFFFFFFFFFFFFFFFFFFFF21
:106FA000FFFFFFFFFFFFFFFFFFFFFFFFFFFFFFFFF1
:106FB000FFFFFFFFFFFFFFFFFFFFFFFFFFFFFFFFE1
:106FC000FFFFFFFFFFFFFFFFFFFFFFFFFFFFDFF7F9
:106FD000BEF77EE73DDFFCD6BBC65ABE39B639B632
:106FE00039B639BE5AC6BBCEFCDE7EEFBFFFDFFF2F
:106FF000DFFFDFFFDFFFDFFFFFFFFFFFFFFFFFFF21
:10700000FFFFFFFFFFFFFFFFFFFFFFFFFFFFFFFF90
:10701000FFFFFFFFFFFFFFFFFFFFFFFFFFFFFFFF80
:10702000FFFFFFFFFFFFFFFFFFFFFFFFFFFFFFFF70
:10703000FFFFFFFFFFFFFFFFDFFFBEF79EF77DEFC4
:107040005DEF1CDFBACE79C638BED7B596AD35A593
:10705000928C5184107CF07B317C728CD394149D83
:1070600055A518BE79CEDBD61CE73CE77DEFBEF711
:10707000DEF7FFFFFFFFFFFFFFFFFFFFFFFFFFFF49
:10708000FFFFFFFFFFFFFFFFFFFFFFFFFFFFFFFF10
:10709000DFFFFFFFFFFFFFFFFFFFFFFFFFFFFFFF20
:1070A000FFFFFFFFFFFFFFFFFFFFFFFFFFFFFFFFF0
:1070B000FFFFFFFFFFFFFFFFFFFFDFFFFFFFFFFF00
:1070C000FFFFFFFFFFFFFFFFFFFFFFFFFFFFFFFFD0
:1070D000FFFFFFFFDFFFDFFFDFF7BEF7BEF7BEF703
:1070E0009EF79EF79EF79EEF7EEF7DEF7DEF5DEFC3
:1070F0005DEF3DE73CE75DEF5DEF7DEF9EF79EF7CF
:10710000BEF7DFFFFFFFFFFFFFFFFFFFFFFFFFFFF8
:10711000FFFFFFFFFFFFFFFFFFFFFFFFFFFFFFFF7F
:10712000FFFFFFFFFFFFFFFFFFFFFFFFFFFFFFFF6F
:10713000FFFFFFFFFFFFFFFFFFFFFFFFFFFFFFFF5F
:10714000FFFFFFFFFFFFFFFFFFFFFFFFFFFFFFFF4F
